:200000000C9471000C9499000C9499000C9499000C9499000C9499000C9499000C94AB0529
:200020000C9499000C9499000C9499000C9499000C9499000C9499000C9499000C949900F8
:200040000C9471090C9499000C9499000C9499000C9499000C9499000C9499000C949900F7
:200060000C9499000C94990020455252004C494E206572726F72733A200077616974696E7F
:20008000672E2E2E004C494E3A2025752C2025752C2025752C2025752C2025752C2025751A
:2000A0002C2025752C2025750A004552524F523A206B4C696E5370656564206F7574206F00
:2000C000662072616E676500010001020501040A01080F01101401201901401E0100840317
:2000E000EE0611241FBECFEFD8E0DEBFCDBF11E0A0E0B1E0ECECF4E102C005900D92A432E0
:20010000B107D9F712E0A4E2B1E001C01D92A639B107E1F710E0C2EED0E004C02297FE01A3
:200120000E94290ACE3DD107C9F70E9454090C94640A0C940000AEE0B0E0E1EAF0E00C9441
:200140003B0A8C0177FF02C060E070E8615070407E836D831A8309838EE08C83CE0101969F
:20016000BA01A9010E94C5002D813E8137FD09C0EF81F8852E173F070CF4F901E00FF11FD8
:2001800010822E96E4E00C94570AABE0B0E0EBECF0E00C942D0A3C012B015A01FC01178251
:2001A0001682838181FD03C06FEF7FEFC6C19AE0892E1E010894211C311CF3012381F2010E
:2001C00023FD859123FF81912F01882309F4B2C1853239F423FD859123FF81912F01853235
:2001E00029F490E0B3010E94B802E7CF982FFF24EE249924FFE1FF15D0F09B3269F09C324B
:2002000028F4903259F0933291F40EC09D3249F0903369F441E024C052E0F52A84E0F82A9B
:2002200028C098E0F92A25C0E0E1FE2A22C0F7FC29C0892F80538A3070F4F6FE05C0989C19
:20024000902C1124980E15C0E89CE02C1124E80EF0E2FF2A0EC09E3229F4F6FC6BC140E47F
:20026000F42A07C09C3619F450E8F52A02C0983649F4F20123FD959123FF91912F0199232D
:2002800009F0B8CF892F8554833018F08052833038F444E050E0A40EB51E5FE359830FC01B
:2002A000933631F0933779F0933509F056C020C0F5018081898342E050E0A40EB51E61012E
:2002C00001E010E012C0F501C080D180F6FC03C06FEF7FEF02C0692D70E042E050E0A40EC7
:2002E000B51EC6010E94AD028C015FE7F52214C0F501C080D180F6FC03C06FEF7FEF02C08B
:20030000692D70E042E050E0A40EB51EC6010E94A2028C0150E8F52AF3FE07C01AC080E23B
:2003200090E0B3010E94B802EA948E2D90E008171907A8F30EC0F601F7FC8591F7FE8191E5
:200340006F0190E0B3010E94B802E110EA94015010400115110579F7EAC0943611F09936BD
:2003600069F5F7FE08C0F501208131814281538184E090E00AC0F501808191819C014427D3
:2003800037FD4095542F82E090E0A80EB91E9FE6F92257FF09C050954095309521953F4FF0
:2003A0004F4F5F4FE0E8FE2ACA01B901A1012AE030E00E94E402D82ED21840C0953729F45F
:2003C0001F2D1F7E2AE030E01DC01F2D197F9F3661F0903720F4983509F0ACC00FC0903790
:2003E00039F0983709F0A6C004C028E030E00AC0106114FD146020E130E004C014FD1660AE
:2004000020E132E017FF08C0F501608171818281938144E050E008C0F50180819181BC0129
:2004200080E090E042E050E0A40EB51EA1010E94E402D82ED2188FE7F82EF122F6FE0BC08D
:200440005EEFF522D91438F4F4FE07C0F2FC05C08FEEF82202C01D2D01C0192DF4FE0DC04A
:20046000FE01ED0DF11D8081803319F499EEF92208C01F5FF2FE05C003C08F2D867809F0A1
:200480001F5F0F2DF3FC14C0F0FE0FC01E1510F09D2C0BC09D2C9E0C911A1E2D06C080E2CA
:2004A00090E0B3010E94B8021F5F1E15C0F304C01E1510F4E11A01C0EE2404FF0FC080E35A
:2004C00090E0B3010E94B80202FF1DC001FD03C088E790E00EC088E590E00BC0802F8678FB
:2004E00091F001FF02C08BE201C080E2F7FC8DE290E0B3010E94B80206C080E390E0B301FA
:200500000E94B8029A94D914C0F3DA94F101ED0DF11D808190E0B3010E94B802DD20A9F72B
:2005200006C080E290E0B3010E94B802EA94EE20C1F743CEF30166817781CB012B96E2E19B
:200540000C94490AFC010590615070400110D8F7809590958E0F9F1F0895FC016150704045
:2005600001900110D8F7809590958E0F9F1F08950F931F93CF93DF938C01EB018B8181FFAB
:200580001BC082FF0DC02E813F818C819D812817390764F4E881F9810193F983E88306C09D
:2005A000E885F985802F0995892B31F48E819F8101969F838E8302C00FEF1FEFC801DF912A
:2005C000CF911F910F910895FA01AA27283051F1203181F1E8946F936E7F6E5F7F4F8F4FC1
:2005E0009F4FAF4FB1E03ED0B4E03CD0670F781F891F9A1FA11D680F791F8A1F911DA11D80
:200600006A0F711D811D911DA11D20D009F468943F912AE0269F11243019305D3193DEF69E
:20062000CF010895462F4770405D4193B3E00FD0C9F7F6CF462F4F70405D4A3318F0495DBD
:2006400031FD4052419302D0A9F7EACFB4E0A6959795879577956795BA95C9F700976105B0
:20066000710508959B01AC010A2E06945795479537952795BA95C9F7620F731F841F951F93
:20068000A01D08950F931F938C01FB01DC0112967C936E93119732971496FC93EE931397B9
:2006A000329681E090E002C0880F991F4A95E2F715968C932291282B2083F894D801119659
:2006C000ED91FC911297908115968C9180958923808378940E944B09F801668377838087E4
:2006E0009187128681E08083F894D8011196ED91FC911297908115968C9180958923808389
:2007000078941F910F91089584E291E065E270E040E00E9442038FE291E065E270E041E0D1
:200720000E9442030895CF93DF93EC0188818230D9F08330D1F1813009F051C08A85882306
:2007400009F44DC082E08883F894E981FA8180819D81892B808378940E944B096E837F83E6
:20076000888799871A863BC00E944B092E813F8148855985621B730B840B950B6531710569
:200780008105910560F183E08883F894E981FA8190818D8180958923808378940E944B0928
:2007A0006E837F83888799871AC00E944B092E813F8148855985621B730B840B950B6F3163
:2007C00071058105910558F081E08883F894E981FA8190818D818095892380837894DF9103
:2007E000CF910895AF92BF92CF92DF92EF92FF920F931F93DF93CF93CDB7DEB72B970FB6BE
:20080000F894DEBF0FBECDBFEE24E3946E010894C11CD11C82E0A82EB12CAC0EBD1E0E94AC
:20082000CC080E94C60784E291E00E9493038FE291E00E94930380913A018823A1F48AE353
:2008400091E00E946309892B71F00E944B0960934F017093500180935101909352018AE32F
:2008600091E00E946D090E944B0920914F01309150014091510150915201621B730B840B05
:20088000950B685B7B408040904080F0E0922E018AE790E00E9461080E944B0960934F0174
:2008A000709350018093510190935201809142018823A1F482E491E00E946309892B71F07B
:2008C0000E944B0960934B0170934C0180934D0190934E0182E491E00E946D090E94A40586
:2008E000182F882361F0E09239010E944B0960934F01709350018093510190935201809190
:200900004A01812B80934A01882349F10E944B0920914B0130914C0140914D0150914E014D
:20092000621B730B840B950B695E734080409040B0F08DE690E00E94480880914A010E9410
:2009400070070E9435080E944B0960934B0170934C0180934D0190934E0110924A01198261
:20096000C6010E947205882309F459CFC6010E942405F82E882319F0E0922E0102C0E09286
:20098000390100E010E00EC00115110519F080E20E94B407F501E00FF11D80810E94EA0704
:2009A0000F5F1F4F898190E0081719076CF3FF2021F488E690E00E9448080E9435080E94BE
:2009C0004B0960934F0170935001809351019093520125CF0E94A1070E94F5040E94F706D9
:2009E000789481E080932E0108951092800083E0809381001092850010928400109289001A
:200A00001092880010928B0010928A0010926F0016BA0895482F282F220F220F622F60951F
:200A2000822F880F982F990F392F330F532F550F862789279227932785278078952790743B
:200A4000892B4F73842B08950F931F93CF93DF93EC010881013021F0802F8350883048F57D
:200A60001981812F0E940A05181719F5023010F491E020C0FE01E00FF11DE081DE011196D4
:200A800020E030E003C08D91280F311D0150D9F7332339F0832F90E0AC01420F511D9A0117
:200AA000F7CF90E0822F8095E81391E081E0982701C090E0892FDF91CF911F910F91089508
:200AC000FC0180E09BE491838083128288E6838386E384838DE0858386E086838EE490E0E5
:200AE00087830895582F692F9091B9018091B9019817E1F3F8944091BB018091BA014817C3
:200B000011F480E01FC0242F30E08BE090E0289FF001299FF00D389FF00D1124252F362F14
:200B2000C901DC01E05AFE4F8BE001900D928150E1F7842F8F5F8093BB01883010F0109279
:200B4000BB0181E078940895F8948091BC011092BC01789408951F920F920FB60F92112480
:200B60002F933F934F935F936F937F938F939F93AF93BF93EF93FF93439A8091B8018130A5
:200B800021F0823009F003C145C04A990AC180915B018F5F80935B018A3008F404C1409A03
:200BA00020918400309185001092B2004A9909C08091840090918500821B930B8F3F9105E0
:200BC00098F3409882E08093B80110925C0110925D018091BA0190E02BE030E0829FF0011C
:200BE000839FF00D929FF00D1124E05AFE4F108220918400309185001092B2004A9BC2C024
:200C00008091840090918500821B930B8F3F910598F3B8C02C9A89B184702C9820915D0130
:200C2000222381F4882331F080915C01882359F194E02AC081E080935D0110925E01809387
:200C40005F01B1C0293090F4882339F080915E0190915F01892B80935E0180915F01880FF3
:200C600080935F012F5F20935D019DC040915C014F5F40935C0110925D01882361F4442392
:200C800011F098E001C090E12B9A8091BC01982B9093BC0182C050915E01413061F45535A1
:200CA00001F12B9A8091BC0180618093BC012B984093B80176C08091BA0190E02BE030E022
:200CC000829FF001839FF00D929FF00D1124E05AFE4F8081DF01A80FB11D11965C938F5F0F
:200CE000808380915A01682F70E020918400309185001092B2004A9B0AC08091840090916A
:200D00008500821B930B8617970798F363C08091BA0190E02BE030E0829FF001839FF00DA2
:200D2000929FF00D1124E05AFE4F80818A3028F529C02B9A8091BC0181602DC08091BA01DB
:200D40008F5F8093BA01883010F01092BA019091BB018091BA01981709F52B9A8091BC01D9
:200D600080628093BC012B98892F8F5F8093BB018830A0F01092BB0111C02B9A8091BC017F
:200D8000826009C0809157018093B2000CC02B9A8091BC0180648093BC012B9881E0809330
:200DA000B80110925B018091B9018F5F8093B9014398FF91EF91BF91AF919F918F917F911B
:200DC0006F915F914F913F912F910F900FBE0F901F901895442309F0B1CFABCFE0E6F1E05B
:200DE00010823B9681E0E83BF807D1F7089583E591E00E94600552985A9A389A4098249A82
:200E00002C98239A2B983B9A4398569A5E981092BA011092BB0181E08093B80110925B0112
:200E2000539A83E38093B00080915501882311F482E001C084E088608093B1001092B200FE
:200E40008091560181508093B30081508093B40082E08093700087BB1092BC010E94E207EA
:200E60008DB79EB742970FB6F8949EBF0FBE8DBFEDB7FEB7319685E890E0ADB7BEB71296BB
:200E80009C938E93119780915301909154019383828381E090E09583848380915501868304
:200EA000178280915601808711868091570182871386809158018487158680915901868700
:200EC000178680915A01808B118A0E94A1088DB79EB742960FB6F8949EBF0FBE8DBF089543
:200EE0000F931F93CF93DF9320E0C0E0D0E0082F10E0FE01EE0FFF1FEC0FFD1FE853FF4F99
:200F0000E4918E2F90E080239123892B89F0222319F080E20E94B407FE01EE0FFF1FEC0F89
:200F2000FD1FE753FF4F859194910E94890821E02196C730D105E9F6DF91CF911F910F911B
:200F4000089510920E0210920D021092C50080E18093C40082E08093C00088E08093C10081
:200F600086E08093C200089590910D02983768F4E0910E02E90FE83708F0E857F0E0E15F5F
:200F8000FD4F80839F5F90930D02089590910D029923B9F08091C00085FF13C080910E0257
:200FA000E82FF0E0E15FFD4FE0818F5F80930E02883710F010920E02915090930D02E09355
:200FC000C600089502C00E94C60780910D028823D1F70895282F22952F7090910D022A3016
:200FE00068F49837D8F4E0910E02E90FE83708F0E857F0E0E15FFD4F205D0CC0983770F453
:20100000E0910E02E90FE83708F0E857F0E0E15FFD4F295A20839F5F90930D028F7090912F
:201020000D028A3088F49837F8F4E0910E02E90FE83708F0E857F0E0E15FFD4F805D8083A5
:201040009F5F90930D020895983770F4E0910E02E90FE83708F0E857F0E0E15FFD4F895A82
:2010600080839F5F90930D02089590910D02983770F4E0910E02E90FE83708F0E857F0E09E
:20108000E15FFD4F8AE080839F5F90930D02089540910E0220910D02FC010196349133233A
:2010A00069F02837C8F7E22FE40FE83708F0E857F0E0E15FFD4F30832F5FEECF20930D0243
:2010C000089540910E0220910D02FC0101963491332369F02837C8F7E22FE40FE83708F091
:2010E000E857F0E0E15FFD4F30832F5FEECF20930D02283768F4E42FE20FE83708F0E85780
:20110000F0E0E15FFD4F8AE080832F5F20930D020895DC0120910E0280910D029D91992371
:2011200069F08837D8F7E82FE20FE83708F0E857F0E0E15FFD4F90838F5FF0CF80930D022C
:201140000895DF93CF93CDB7DEB7FE013596419151918DEB91E060E570E09F010E949B002C
:2011600020910E0280910D02ADEBB1E00DC0883750F4E82FE20FE83708F0E857F0E0E15F27
:20118000FD4F90838F5F11969C91992381F780930D02CF91DF9108954F925F926F927F9287
:2011A0008F929F92AF92BF92CF92DF92EF92FF920F931F93F8942091840030918500789400
:2011C00040908B0250908C022419350960908702709088028090890290908A02C90164EC65
:2011E00079E00E94130A5B018CE396EFAC01649FC001659F900D749F900D1124820F931F4D
:201200006AEF70E00E94130A6B017B0100E010E0B50180E090E02AE030E040E050E00E941C
:20122000F409660E771E881E991EE60CF71C081D191DE0928702F092880200938902109323
:201240008A028AEF90E0C89E9001C99E300DD89E300D112484EC99E0AC01A49EC001A59EBA
:20126000900DB49E900D1124840D951D280F391F30938C0220938B021F910F91FF90EF90EC
:20128000DF90CF90BF90AF909F908F907F906F905F904F9008956091870270918802809115
:2012A000890290918A020895CF93DF930E94B9090E94EA04C0E0D0E00E94F2032097E1F31F
:2012C0000E940000F9CFFC0120E030E08081882311F421E030E0C9010895FC0181E080830D
:2012E00008951F920F920FB60F9211242F933F938F939F93AF93BF9380919102909192028F
:20130000A0919302B0919402309195020196A11DB11D232F2D5F2D3720F02D570196A11D8A
:20132000B11D209395028093910290939202A0939302B093940280918D0290918E02A09115
:201340008F02B09190020196A11DB11D80938D0290938E02A0938F02B0939002BF91AF9188
:201360009F918F913F912F910F900FBE0F901F901895789484B5826084BD84B5816084BD63
:2013800085B5826085BD85B5816085BDEEE6F0E0808181608083E1E8F0E0108280818260FB
:2013A0008083808181608083E0E8F0E0808181608083E1EBF0E0808184608083E0EBF0E0A9
:2013C000808181608083EAE7F0E080818460808380818260808380818160808380818068EB
:2013E00080831092C1000895629FD001739FF001829FE00DF11D649FE00DF11D929FF00DCD
:20140000839FF00D749FF00D659FF00D9927729FB00DE11DF91F639FB00DE11DF91FBD0165
:20142000CF0111240895AA1BBB1B51E107C0AA1FBB1FA617B70710F0A61BB70B881F991F76
:201440005A95A9F780959095BC01CD010895EE0FFF1F0590F491E02D09942F923F924F9249
:201460005F926F927F928F929F92AF92BF92CF92DF92EF92FF920F931F93CF93DF93CDB7F5
:20148000DEB7CA1BDB0B0FB6F894DEBF0FBECDBF09942A88398848885F846E847D848C84DF
:2014A0009B84AA84B984C884DF80EE80FD800C811B81AA81B981CE0FD11D0FB6F894DEBFC5
:2014C0000FBECDBFED010895F894FFCF53485254004C4F4E4700535452540053544F5000CA
:2014E00053594E43004F56524E004F5448520000FFFFFFFFFFFFFFFFFFFFFFFFFFFFFFFF3D
:20150000EE1FFF1FA217B307E407F50720F0A21BB30BE40BF50B661F771F881F991F1A94A4
:2015200069F760957095809590959B01AC01BD01CF01089597FB092E05260ED057FD04D0A9
:20154000D7DF0AD0001C38F450954095309521953F4F4F4F5F4F0895F6F7909580957095DB
:2015600061957F4F8F4F9F4F0895EE0FFF1F0590F491E02D09942F923F924F925F926F92FA
:201580007F928F929F92AF92BF92CF92DF92EF92FF920F931F93CF93DF93CDB7DEB7CA1B4C
:2015A000DB0B0FB6F894DEBF0FBECDBF09942A88398848885F846E847D848C849B84AA84EB
:2015C000B984C884DF80EE80FD800C811B81AA81B981CE0FD11D0FB6F894DEBF0FBECDBF98
:2015E000ED010895F894FFCF53485254004C4F4E4700535452540053544F500053594E43C5
:20160000004F56524E004F5448520000FFFFFFFFFFFFFFFFFFFFFFFFFFFFFFFFFFFFFFFF5C
:20162000FFFFFFFFFFFFFFFFFFFFFFFFFFFFFFFFFFFFFFFFFFFFFFFFFFFFFFFFFFFFFFFFCA
:20164000FFFFFFFFFFFFFFFFFFFFFFFFFFFFFFFFFFFFFFFFFFFFFFFFFFFFFFFFFFFFFFFFAA
:20166000FFFFFFFFFFFFFFFFFFFFFFFFFFFFFFFFFFFFFFFFFFFFFFFFFFFFFFFFFFFFFFFF8A
:20168000E055F0E0EB52FE4F8AE080839F5F9093D30108954091D4012091D301FC010196FD
:2016A0003491332369F02035C8F7E22FE40FE03508F0E055F0E0EB52FE4F30832F5FEECF04
:2016C0002093D30108954091D4012091D301FC0101963491332369F02035C8F7E22FE40F9B
:2016E000E03508F0E055F0E0EB52FE4F30832F5FEECF2093D301203568F4E42FE20FE035FF
:2017000008F0E055F0E0EB52FE4F8AE080832F5F2093D3010895DC012091D4018091D301DB
:201720009D91992369F08035D8F7E82FE20FE03508F0E055F0E0EB52FE4F90838F5FF0CF7E
:201740008093D30108950F931F93DF93CF93CDB7DEB7C055D0400FB6F894DEBF0FBECDBF58
:20176000FE01E95AFF4F419151918E010F5F1F4FC80160E570E09F010E94D7002091D401BD
:201780008091D301D8010DC0803550F4E82FE20FE03508F0E055F0E0EB52FE4F90838F5F20
:2017A00011969C91992381F78093D301C05BDF4F0FB6F894DEBF0FBECDBFCF91DF911F912A
:2017C0000F9108954F925F926F927F928F929F92AF92BF92CF92DF92EF92FF920F931F93CC
:2017E000F894209184003091850078944090290250902A0224193509609025027090260215
:201800008090270290902802C90164EC79E00E94290D5B018CE396EFAC01649FC001659F35
:20182000900D749F900D1124820F931F6AEF70E00E94290D6B017B0100E010E0B50180E094
:2018400090E02AE030E040E050E00E940A0D660E771E881E991EE60CF71C081D191DE092BD
:201860002502F092260200932702109328028AEF90E0C89E9001C99E300DD89E300D1124A2
:2018800084EC99E0AC01A49EC001A59E900DB49E900D1124840D951D280F391F30932A02EA
:2018A000209329021F910F91FF90EF90DF90CF90BF90AF909F908F907F906F905F904F9066
:2018C0000895609125027091260280912702909128020895CF93DF930E94CF0C0E94D4053C
:2018E000C0E0D0E00E946A042097E1F30E940000F9CFFC0120E030E08081882311F421E0D4
:2019000030E0C9010895FC0181E0808308951F920F920FB60F9211242F933F938F939F937D
:20192000AF93BF9380912F0290913002A0913102B0913202309133020196A11DB11D232F3A
:201940002D5F2D3720F02D570196A11DB11D2093330280932F0290933002A0933102B093B6
:20196000320280912B0290912C02A0912D02B0912E020196A11DB11D80932B0290932C0221
:20198000A0932D02B0932E02BF91AF919F918F913F912F910F900FBE0F901F90189578948F
:2019A00084B5826084BD84B5816084BD85B5826085BD85B5816085BDEEE6F0E0808181602F
:2019C0008083E1E8F0E01082808182608083808181608083E0E8F0E0808181608083E1EBC5
:2019E000F0E0808184608083E0EBF0E0808181608083EAE7F0E08081846080838081826043
:201A000080838081816080838081806880831092C1000895629FD001739FF001829FE00D0F
:201A2000F11D649FE00DF11D929FF00D839FF00D749FF00D659FF00D9927729FB00DE11DB0
:201A4000F91F639FB00DE11DF91FBD01CF0111240895AA1BBB1B51E107C0AA1FBB1FA61745
:201A6000B70710F0A61BB70B881F991F5A95A9F780959095BC01CD010895A1E21A2EAA1B45
:201A8000BB1BFD010DC0AA1FBB1FEE1FFF1FA217B307E407F50720F0A21BB30BE40BF50B03
:201AA000661F771F881F991F1A9469F760957095809590959B01AC01BD01CF01089597FB64
:201AC000092E05260ED057FD04D0D7DF0AD0001C38F450954095309521953F4F4F4F5F4FB7
:201AE0000895F6F790958095709561957F4F8F4F9F4F0895EE0FFF1F0590F491E02D099411
:201B00002F923F924F925F926F927F928F929F92AF92BF92CF92DF92EF92FF920F931F9333
:201B2000CF93DF93CDB7DEB7CA1BDB0B0FB6F894DEBF0FBECDBF09942A88398848885F84E3
:201B40006E847D848C849B84AA84B984C884DF80EE80FD800C811B81AA81B981CE0FD11D09
:201B60000FB6F894DEBF0FBECDBFED010895F894FFCF53485254004C4F4E4700535452547B
:201B80000053544F500053594E43004F56524E004F5448520000FFFFFFFFFFFFFFFFFFFF4A
:201BA000FFFFFFFFFFFFFFFFFFFFFFFFFFFFFFFFFFFFFFFFFFFFFFFFFFFFFFFFFFFFFFFF45
:201BC000FFFFFFFFFFFFFFFFFFFFFFFFFFFFFFFFFFFFFFFFFFFFFFFFFFFFFFFFFFFFFFFF25
:201BE000FFFFFFFFFFFFFFFFFFFFFFFFFFFFFFFFFFFFFFFFFFFFFFFFFFFFFFFFFFFFFFFF05
:201C0000991F1A9469F760957095809590959B01AC01BD01CF01089597FB092E05260ED084
:201C200057FD04D0D7DF0AD0001C38F450954095309521953F4F4F4F5F4F0895F6F79095E6
:201C40008095709561957F4F8F4F9F4F0895EE0FFF1F0590F491E02D09942F923F924F92EB
:201C60005F926F927F928F929F92AF92BF92CF92DF92EF92FF920F931F93CF93DF93CDB7ED
:201C8000DEB7CA1BDB0B0FB6F894DEBF0FBECDBF09942A88398848885F846E847D848C84D7
:201CA0009B84AA84B984C884DF80EE80FD800C811B81AA81B981CE0FD11D0FB6F894DEBFBD
:201CC0000FBECDBFED010895F894FFCF53485254004C4F4E4700535452540053544F5000C2
:201CE00053594E43004F56524E004F5448520000FFFFFFFFFFFFFFFFFFFFFFFFFFFFFFFF35
:201D0000FFFFFFFFFFFFFFFFFFFFFFFFFFFFFFFFFFFFFFFFFFFFFFFFFFFFFFFFFFFFFFFFE3
:201D2000FFFFFFFFFFFFFFFFFFFFFFFFFFFFFFFFFFFFFFFFFFFFFFFFFFFFFFFFFFFFFFFFC3
:201D4000FFFFFFFFFFFFFFFFFFFFFFFFFFFFFFFFFFFFFFFFFFFFFFFFFFFFFFFFFFFFFFFFA3
:201D6000FFFFFFFFFFFFFFFFFFFFFFFFFFFFFFFFFFFFFFFFFFFFFFFFFFFFFFFFFFFFFFFF83
:207800000C94343C0C94513C0C94513C0C94513C0C94513C0C94513C0C94513C0C94513C1D
:207820000C94513C0C94513C0C94513C0C94513C0C94513C0C94513C0C94513C0C94513CE0
:207840000C94513C0C94513C0C94513C0C94513C0C94513C0C94513C0C94513C0C94513CC0
:207860000C94513C0C94513C11241FBECFEFD8E0DEBFCDBF11E0A0E0B1E0ECE9FFE702C07E
:2078800005900D92A230B107D9F712E0A2E0B1E001C01D92AD30B107E1F70E942D3D0C94CC
:2078A000CC3F0C94003C982F9595959595959595905D8F708A307CF0282F295A8091C000B5
:2078C00085FFFCCF9093C6008091C00085FFFCCF2093C6000895282F205DF0CF982F8091CF
:2078E000C00085FFFCCF9093C6000895EF92FF920F931F93EE24FF2487018091C00087FD7B
:2079000017C00894E11CF11C011D111D81E4E81682E4F8068FE0080780E0180770F3E09106
:207920000401F091050109958091C00087FFE9CF8091C6001F910F91FF90EF9008950E949A
:20794000763C982F8091C00085FFFCCF9093C60091362CF490330CF09053892F08959755DB
:20796000892F08951F930E949F3C182F0E949F3C1295107F810F1F9108951F93182F882308
:2079800021F00E94763C1150E1F71F9108951F93182F0E94763C803249F0809103018F5FC1
:2079A000809303018530C1F01F9108958091C00085FFFCCF84E18093C6008091C00085FF4A
:2079C000FCCF1093C6008091C00085FFFCCF80E18093C6001F910895E0910401F0910501CF
:2079E00009951F9108950E94763C803241F0809103018F5F80930301853081F00895809177
:207A0000C00085FFFCCF84E18093C6008091C00085FFFCCF80E18093C6000895E0910401AC
:207A2000F09105010995089540E951E08823A1F02D9A28EE33E0FA013197F1F72150304072
:207A4000D1F72D9828EE33E0FA013197F1F721503040D1F7815061F708953F924F925F92B3
:207A60006F927F928F929F92AF92BF92CF92DF92EF92FF920F931F93CF93DF93000080E1A3
:207A80008093C4001092C50088E18093C10086E08093C2005098589A259A81E00E94143D43
:207AA00024E1F22E9EE1E92E85E9D82E0FE0C02E10E1B12EAA24A394B1E49B2EA6E58A2E44
:207AC000F2E57F2EE0E26E2E79E4572E63E5462E50E5352E0E94763C8033B1F18133B9F187
:207AE000803409F46FC0813409F476C0823409F485C0853409F488C0803531F1823521F128
:207B0000813511F1853509F485C0863509F48DC0843609F496C0843709F403C1853709F46A
:207B200072C1863709F466C0809103018F5F80930301853079F6E0910401F0910501099559
:207B40000E94763C803351F60E94F33CC3CF0E94763C803249F78091C00085FFFCCFF0928C
:207B6000C6008091C00085FFFCCF9092C6008091C00085FFFCCF8092C6008091C00085FFEA
:207B8000FCCF7092C6008091C00085FFFCCF6092C6008091C00085FFFCCF5092C6008091A1
:207BA000C00085FFFCCF4092C6008091C00085FFFCCF3092C6008091C00085FFFCCFB09214
:207BC000C60088CF0E94763C863808F4BDCF0E94763C0E94F33C7ECF0E94763C803809F473
:207BE0009CC0813809F40BC1823809F43CC1883909F48FC080E00E94C73C6CCF84E10E949F
:207C0000BD3C0E94F33C66CF85E00E94BD3C0E94F33C60CF0E94763C809306010E94763CA3
:207C2000809307010E94F33C55CF0E94763C803309F41DC183E00E94BD3C80E00E94C73C4F
:207C400049CF0E94763C809309020E94763C8093080280910C028E7F80930C020E94763C88
:207C6000853409F415C18091080290910902892B89F000E010E00E94763CF801E85FFE4F53
:207C800080830F5F1F4F80910802909109020817190788F30E94763C803209F045CF8091E0
:207CA0000C0280FF01C16091060170910701660F771F7093070160930601A0910802B091E8
:207CC00009021097C9F0E8E0F1E09B01AD014E0F5F1FF999FECF32BD21BD819180BDFA9A6C
:207CE000F99A2F5F3F4FE417F50799F76A0F7B1F70930701609306018091C00085FFFCCF16
:207D0000F092C6008091C00085FFFCCFB092C600E1CE83E00E94C73CDDCE82E00E94C73C8A
:207D2000D9CE0E94763C809309020E94763C809308028091060190910701880F991F909306
:207D40000701809306010E94763C853409F4A6C080910C028E7F80930C020E94763C80323E
:207D600009F0B8CE8091C00085FFFCCFF092C600609108027091090261157105B9F140E05F
:207D800050E080910C02A82FA170B82FB27011C0BB2309F45CC0E0910601F0910701319613
:207DA000F0930701E09306014F5F5F4F46175707E8F4AA2369F3F999FECF209106013091CA
:207DC000070132BD21BDF89A90B58091C00085FFFCCF9093C6002F5F3F4F30930701209354
:207DE00006014F5F5F4F4617570718F38091C00085FDE5CE8091C00085FFF8CFE0CE81E029
:207E00000E94C73C67CE0E94763C803209F08CCE8091C00085FFFCCFF092C6008091C000F6
:207E200085FFFCCFE092C6008091C00085FFFCCFD092C6008091C00085FFFCCFC092C6003B
:207E40008091C00085FFFCCFB092C60043CEE0910601F091070194918091C00085FFFCCFA3
:207E60009093C6009CCF80E10E94C73C33CE0E94763C0E94763C182F0E94763C112309F433
:207E800083C0113009F484C08FE00E94C73C22CE80910C02816080930C02E5CE80910C0226
:207EA000816080930C0259CF809107018823880F880B8A2180930B0280910601909107019E
:207EC000880F991F90930701809306018091080280FF09C0809108029091090201969093AA
:207EE000090280930802F894F999FECF1127E0910601F0910701C8E0D1E0809108029091A1
:207F00000902103091F40091570001700130D9F303E000935700E895009157000170013067
:207F2000D9F301E100935700E895099019900091570001700130D9F301E000935700E8954C
:207F40001395103498F011270091570001700130D9F305E000935700E8950091570001707A
:207F60000130D9F301E100935700E8953296029709F0C7CF103011F00296E5CF11248091F8
:1E7F8000C00085FFB9CEBCCE8EE10E94C73CA2CD85E90E94C73C9ECDF894FFCF8000B3
:00000001FF
