:200000000C946F000C9497000C9497000C9497000C9497000C9497000C9497000C9445059D
:200020000C9497000C9497000C9497000C9497000C9497000C9497000C9497000C94970008
:200040000C94C2090C9497000C9497000C9497000C9497000C9497000C9497000C949700B4
:200060000C9497000C94970020455252004C494E206572726F72733A200077616974696E83
:20008000672E2E2E004C494E3A2025752C2025752C2025752C2025752C2025752C2025751A
:2000A0000A004552524F523A20726571756573746564206F7574206F662072616E676520C6
:2000C0006261756400010001020501040A01080F01101401201901401E014003880611248F
:2000E0001FBECFEFD8E0DEBFCDBF11E0A0E0B1E0E8EEF5E102C005900D92A432B107D9F782
:2001000012E0A4E2B1E001C01D92AD31B107E1F710E0CEEDD0E004C02297FE010E94B70ABE
:20012000CA3DD107C9F70E94A5090C94F20A0C940000AEE0B0E0EFE9F0E00C94C90A8C01CE
:2001400077FF02C060E070E8615070407E836D831A8309838EE08C83CE010196BA01A9010C
:200160000E94C3002D813E8137FD09C0EF81F8852E173F070CF4F901E00FF11F10822E96E9
:20018000E4E00C94E50AABE0B0E0E9ECF0E00C94BB0A3C012B015A01FC01178216828381F1
:2001A00081FD03C06FEF7FEFC6C19AE0892E1E010894211C311CF3012381F20123FD859174
:2001C00023FF81912F01882309F4B2C1853239F423FD859123FF81912F01853229F490E0DE
:2001E000B3010E94B602E7CF982FFF24EE249924FFE1FF15D0F09B3269F09C3228F49032FC
:2002000059F0933291F40EC09D3249F0903369F441E024C052E0F52A84E0F82A28C098E019
:20022000F92A25C0E0E1FE2A22C0F7FC29C0892F80538A3070F4F6FE05C0989C902C112488
:20024000980E15C0E89CE02C1124E80EF0E2FF2A0EC09E3229F4F6FC6BC140E4F42A07C08B
:200260009C3619F450E8F52A02C0983649F4F20123FD959123FF91912F01992309F0B8CF92
:20028000892F8554833018F08052833038F444E050E0A40EB51E5FE359830FC0933631F0B1
:2002A000933779F0933509F056C020C0F5018081898342E050E0A40EB51E610101E010E047
:2002C00012C0F501C080D180F6FC03C06FEF7FEF02C0692D70E042E050E0A40EB51EC601FE
:2002E0000E94AB028C015FE7F52214C0F501C080D180F6FC03C06FEF7FEF02C0692D70E041
:2003000042E050E0A40EB51EC6010E94A0028C0150E8F52AF3FE07C01AC080E290E0B301FF
:200320000E94B602EA948E2D90E008171907A8F30EC0F601F7FC8591F7FE81916F0190E02B
:20034000B3010E94B602E110EA94015010400115110579F7EAC0943611F0993669F5F7FE4C
:2003600008C0F501208131814281538184E090E00AC0F501808191819C01442737FD40951D
:20038000542F82E090E0A80EB91E9FE6F92257FF09C050954095309521953F4F4F4F5F4FAD
:2003A000E0E8FE2ACA01B901A1012AE030E00E94E202D82ED21840C0953729F41F2D1F7EC4
:2003C0002AE030E01DC01F2D197F9F3661F0903720F4983509F0ACC00FC0903739F0983781
:2003E00009F0A6C004C028E030E00AC0106114FD146020E130E004C014FD166020E132E093
:2004000017FF08C0F501608171818281938144E050E008C0F50180819181BC0180E090E06C
:2004200042E050E0A40EB51EA1010E94E202D82ED2188FE7F82EF122F6FE0BC05EEFF522FB
:20044000D91438F4F4FE07C0F2FC05C08FEEF82202C01D2D01C0192DF4FE0DC0FE01ED0DB5
:20046000F11D8081803319F499EEF92208C01F5FF2FE05C003C08F2D867809F01F5F0F2DE0
:20048000F3FC14C0F0FE0FC01E1510F09D2C0BC09D2C9E0C911A1E2D06C080E290E0B30160
:2004A0000E94B6021F5F1E15C0F304C01E1510F4E11A01C0EE2404FF0FC080E390E0B3015C
:2004C0000E94B60202FF1DC001FD03C088E790E00EC088E590E00BC0802F867891F001FFA0
:2004E00002C08BE201C080E2F7FC8DE290E0B3010E94B60206C080E390E0B3010E94B60223
:200500009A94D914C0F3DA94F101ED0DF11D808190E0B3010E94B602DD20A9F706C080E261
:2005200090E0B3010E94B602EA94EE20C1F743CEF30166817781CB012B96E2E10C94D70A44
:20054000FC010590615070400110D8F7809590958E0F9F1F0895FC01615070400190011096
:20056000D8F7809590958E0F9F1F08950F931F93CF93DF938C01EB018B8181FF1BC082FFF1
:200580000DC02E813F818C819D812817390764F4E881F9810193F983E88306C0E885F9850E
:2005A000802F0995892B31F48E819F8101969F838E8302C00FEF1FEFC801DF91CF911F9105
:2005C0000F910895FA01AA27283051F1203181F1E8946F936E7F6E5F7F4F8F4F9F4FAF4FE5
:2005E000B1E03ED0B4E03CD0670F781F891F9A1FA11D680F791F8A1F911DA11D6A0F711D65
:20060000811D911DA11D20D009F468943F912AE0269F11243019305D3193DEF6CF01089538
:20062000462F4770405D4193B3E00FD0C9F7F6CF462F4F70405D4A3318F0495D31FD40526A
:20064000419302D0A9F7EACFB4E0A6959795879577956795BA95C9F700976105710508955D
:200660009B01AC010A2E06945795479537952795BA95C9F7620F731F841F951FA01D08954C
:20068000CF92DF92FF920F931F9385E2C82ED12CD0922601C092250103E210E010932801A7
:2006A00000932701FF24F394F0922901209A28980E949C0960932A0170932B0180932C01DB
:2006C00090932D0110922E01F0922401E0912501F091260190818091290180958923808302
:2006E000D0923101C0923001109333010093320182E080933401219A29980E949C096093E6
:20070000350170933601809337019093380110923901F0922F01E0913001F09131019081CE
:20072000809134018095892380831F910F91FF90DF90CF900895CF93DF93EC0188818230E9
:20074000C9F08330B1F1813009F04BC08A85882309F447C082E08883E981FA8180819D81A7
:20076000892B80830E949C096E837F83888799871A8637C00E949C092E813F814885598561
:20078000621B730B840B950B653171058105910540F183E08883E981FA8190818D8180954F
:2007A000892380830E949C096E837F838887998718C00E949C092E813F8148855985621B6B
:2007C000730B840B950B6F3171058105910548F081E08883E981FA8190818D8180958923D1
:2007E0008083DF91CF910895AF92BF92CF92DF92EF92FF920F931F93DF93CF93CDB7DEB7D2
:200800002B970FB6F894DEBF0FBECDBFEE24E3946E010894C11CD11C92E0A92EB12CAC0E91
:20082000BD1E0E941D090E94030884E291E00E949B038FE291E00E949B0380913A01882338
:20084000A1F48AE391E00E94B409892B71F00E949C0960934F01709350018093510190934B
:2008600052018AE391E00E94BE090E949C0920914F01309150014091510150915201621BB0
:20088000730B840B950B685B7B408040904080F08AE790E00E949E08E0922E010E949C091C
:2008A00060934F01709350018093510190935201809142018823A1F482E491E00E94B409FC
:2008C000892B71F00E949C0960934B0170934C0180934D0190934E0182E491E00E94BE091A
:2008E0000E943E05182F882361F0E09239010E949C0960934F0170935001809351019093BE
:20090000520180914A01812B80934A01882349F10E949C0920914B0130914C0140914D01C8
:2009200050914E01621B730B840B950B695E734080409040B0F08DE690E00E948508809190
:200940004A010E9457070E9472080E949C0960934B0170934C0180934D0190934E011092E5
:200960004A011982C6010E940C05882309F459CFC6010E94A207F82E00E010E00EC001155B
:20098000110519F080E20E94F107F501E00FF11D80810E9427080F5F1F4F898190E0081702
:2009A00019076CF3FF2039F488E690E00E948508E092390102C0E0922E010E9472080E9492
:2009C0009C0960934F0170935001809351019093520127CF0E94DE070E94F70480E09BE407
:2009E0000E94E70681E080932E01789408951092800083E0809381001092850010928400B6
:200A0000109289001092880010928B0010928A0010926F0016BA0895582F692F9091B801B1
:200A20008091B8019817E1F3F8944091BA018091B901481711F480E01FC0242F30E08BE015
:200A400090E0289FF001299FF00D389FF00D1124252F362FC901DC01E15AFE4F8BE00190BC
:200A60000D928150E1F7842F8F5F8093BA01883010F01092BA0181E078940895F894809103
:200A8000BB011092BB01789408951F920F920FB60F9211242F933F934F935F936F937F932A
:200AA0008F939F93AF93BF93EF93FF93439A8091B701813021F0823009F003C145C04A997B
:200AC0000AC180915A018F5F80935A018A3008F404C1409A20918400309185001092B2005F
:200AE0004A9909C08091840090918500821B930B8F3F910598F3409882E08093B70110923E
:200B00005B0110925C018091B90190E02BE030E0829FF001839FF00D929FF00D1124E15A55
:200B2000FE4F108220918400309185001092B2004A9BC2C08091840090918500821B930B2A
:200B40008F3F910598F3B8C02C9A89B184702C9820915C01222381F4882331F080915B0175
:200B6000882359F194E02AC081E080935C0110925D0180935E01B1C0293090F4882339F0BD
:200B800080915D0190915E01892B80935D0180915E01880F80935E012F5F20935C019DC0CD
:200BA00040915B014F5F40935B0110925C01882361F4442311F098E001C090E12B9A809144
:200BC000BB01982B9093BB0182C050915D01413061F4553501F12B9A8091BB01806180936E
:200BE000BB012B984093B70176C08091B90190E02BE030E0829FF001839FF00D929FF00D00
:200C00001124E15AFE4F8081DF01A80FB11D11965C938F5F808380915901682F70E0209127
:200C20008400309185001092B2004A9B0AC08091840090918500821B930B8617970798F3AB
:200C400063C08091B90190E02BE030E0829FF001839FF00D929FF00D1124E15AFE4F8081FE
:200C60008A3028F529C02B9A8091BB0181602DC08091B9018F5F8093B901883010F0109274
:200C8000B9019091BA018091B901981709F52B9A8091BB0180628093BB012B98892F8F5F9A
:200CA0008093BA018830A0F01092BA0111C02B9A8091BB01826009C0809157018093B20085
:200CC0000CC02B9A8091BB0180648093BB012B9881E08093B70110925A018091B8018F5F5F
:200CE0008093B8014398FF91EF91BF91AF919F918F917F916F915F914F913F912F910F904E
:200D00000FBE0F901F901895442309F0B1CFABCFEFE5F1E010823B9681E0E73BF807D1F75F
:200D20000895CF92DF92EF92FF920F931F93CF93DF936C01EB01CB01885E934089539A4472
:200D400030F082EA90E00E949E08C0E8D5E2F601D183C08380E0FFE1C034DF0708F481E0EB
:200D6000F6018283882311F428E001C020E430E040E050E060E074E284EF90E00E949A0ADB
:200D80007E0100E010E0CA01B901A80197010E949A0AF601238326952E5F248360E970EDC6
:200DA00083E090E0A80197010E94780AF601258330E0220F331F220F331F2683DF91CF91CD
:200DC0001F910F91FF90EF90DF90CF900895BC0183E591E00E94910652985A9A389A4098F3
:200DE000249A2C98239A2B983B9A43981092B9011092BA0181E08093B70110925A01539A72
:200E000083E38093B00080915501882311F482E001C084E088608093B1001092B2008091FA
:200E2000560181508093B30081508093B40082E08093700087BB1092BB010E941F088DB79A
:200E40009EB70E970FB6F8949EBF0FBE8DBFEDB7FEB7319685E890E0ADB7BEB712969C9324
:200E60008E93119780915301909154019383828380915501848315828091560186831782A4
:200E80008091570180871186809158018287138680915901848715860E94DE088DB79EB70D
:200EA0000E960FB6F8949EBF0FBE8DBF08950F931F93CF93DF9320E0C0E0D0E0082F10E08B
:200EC000FE01EE0FFF1FEC0FFD1FEB53FF4FE4918E2F90E080239123892B89F0222319F0E1
:200EE00080E20E94F107FE01EE0FFF1FEC0FFD1FEA53FF4F859194910E94C60821E02196D7
:200F0000C730D105E9F6DF91CF911F910F910895482F282F220F220F622F6095822F880F6A
:200F2000982F990F392F330F532F550F86278927922793278527807895279074892B4F7308
:200F4000842B08950F931F93CF93DF93EC010881013021F0802F8350883048F51981812FA4
:200F60000E948807181719F5023010F491E020C0FE01E00FF11DE081DE01119620E030E089
:200F800003C08D91280F311D0150D9F7332339F0832F90E0AC01420F511D9A01F7CF90E0EC
:200FA000822F8095E81391E081E0982701C090E0892FDF91CF911F910F9108951092BD01D9
:200FC0001092BC011092C50080E18093C40082E08093C00088E08093C10086E08093C20067
:200FE00008959091BC01903568F4E091BD01E90FE03508F0E055F0E0E254FE4F80839F5F98
:201000009093BC0108959091BC019923B9F08091C00085FF13C08091BD01E82FF0E0E254FC
:20102000FE4FE0818F5F8093BD01803510F01092BD0191509093BC01E093C600089502C0D5
:201040000E9403088091BC018823D1F70895282F22952F709091BC012A3068F49035D8F433
:20106000E091BD01E90FE03508F0E055F0E0E254FE4F205D0CC0903570F4E091BD01E90F1B
:20108000E03508F0E055F0E0E254FE4F295A20839F5F9093BC018F709091BC018A3088F4A4
:2010A0009035F8F4E091BD01E90FE03508F0E055F0E0E254FE4F805D80839F5F9093BC0105
:2010C0000895903570F4E091BD01E90FE03508F0E055F0E0E254FE4F895A80839F5F909387
:2010E000BC0108959091BC01903570F4E091BD01E90FE03508F0E055F0E0E254FE4F8AE069
:2011000080839F5F9093BC0108954091BD012091BC01FC0101963491332369F02035C8F738
:20112000E22FE40FE03508F0E055F0E0E254FE4F30832F5FEECF2093BC0108954091BD017C
:201140002091BC01FC0101963491332369F02035C8F7E22FE40FE03508F0E055F0E0E254B9
:20116000FE4F30832F5FEECF2093BC01203568F4E42FE20FE03508F0E055F0E0E254FE4F6A
:201180008AE080832F5F2093BC010895DC012091BD018091BC019D91992369F08035D8F766
:2011A000E82FE20FE03508F0E055F0E0E254FE4F90838F5FF0CF8093BC0108950F931F9311
:2011C000DF93CF93CDB7DEB7C055D0400FB6F894DEBF0FBECDBFFE01E95AFF4F4191519172
:2011E0008E010F5F1F4FC80160E570E09F010E9499002091BD018091BC01D8010DC08035B3
:2012000050F4E82FE20FE03508F0E055F0E0E254FE4F90838F5F11969C91992381F78093D1
:20122000BC01C05BDF4F0FB6F894DEBF0FBECDBFCF91DF911F910F9108954F925F926F92D1
:201240007F928F929F92AF92BF92CF92DF92EF92FF920F931F93F89420918400309185005A
:20126000789440901202509013022419350960900E0270900F028090100290901102C901DE
:2012800064EC79E00E94640A5B018CE396EFAC01649FC001659F900D749F900D1124820FBD
:2012A000931F6AEF70E00E94640A6B017B0100E010E0B50180E090E02AE030E040E050E01B
:2012C0000E94450A660E771E881E991EE60CF71C081D191DE0920E02F0920F02009310029D
:2012E000109311028AEF90E0C89E9001C99E300DD89E300D112484EC99E0AC01A49EC00133
:20130000A59E900DB49E900D1124840D951D280F391F30931302209312021F910F91FF9079
:20132000EF90DF90CF90BF90AF909F908F907F906F905F904F90089560910E0270910F02F8
:2013400080911002909111020895CF93DF930E940A0A0E94EA04C0E0D0E00E94F4032097DF
:20136000E1F30E940000F9CFFC0120E030E08081882311F421E030E0C9010895FC0181E09B
:20138000808308951F920F920FB60F9211242F933F938F939F93AF93BF93809118029091F8
:2013A0001902A0911A02B0911B0230911C020196A11DB11D232F2D5F2D3720F02D570196F8
:2013C000A11DB11D20931C028093180290931902A0931A02B0931B02809114029091150237
:2013E000A0911602B09117020196A11DB11D8093140290931502A0931602B0931702BF91CD
:20140000AF919F918F913F912F910F900FBE0F901F901895789484B5826084BD84B58160C3
:2014200084BD85B5826085BD85B5816085BDEEE6F0E0808181608083E1E8F0E010828081FB
:2014400082608083808181608083E0E8F0E0808181608083E1EBF0E0808184608083E0EBF6
:20146000F0E0808181608083EAE7F0E0808184608083808182608083808181608083808162
:20148000806880831092C1000895629FD001739FF001829FE00DF11D649FE00DF11D929F41
:2014A000F00D839FF00D749FF00D659FF00D9927729FB00DE11DF91F639FB00DE11DF91F86
:2014C000BD01CF0111240895AA1BBB1B51E107C0AA1FBB1FA617B70710F0A61BB70B881FD0
:2014E000991F5A95A9F780959095BC01CD010895A1E21A2EAA1BBB1BFD010DC0AA1FBB1F6F
:20150000EE1FFF1FA217B307E407F50720F0A21BB30BE40BF50B661F771F881F991F1A94A4
:2015200069F760957095809590959B01AC01BD01CF01089597FB092E05260ED057FD04D0A9
:20154000D7DF0AD0001C38F450954095309521953F4F4F4F5F4F0895F6F7909580957095DB
:2015600061957F4F8F4F9F4F0895EE0FFF1F0590F491E02D09942F923F924F925F926F92FA
:201580007F928F929F92AF92BF92CF92DF92EF92FF920F931F93CF93DF93CDB7DEB7CA1B4C
:2015A000DB0B0FB6F894DEBF0FBECDBF09942A88398848885F846E847D848C849B84AA84EB
:2015C000B984C884DF80EE80FD800C811B81AA81B981CE0FD11D0FB6F894DEBF0FBECDBF98
:2015E000ED010895F894FFCF53485254004C4F4E4700535452540053544F500053594E43C5
:20160000004F56524E004F5448520000FFFFFFFFFFFFFFFFFFFFFFFFFFFFFFFFFFFFFFFF5C
:20162000FFFFFFFFFFFFFFFFFFFFFFFFFFFFFFFFFFFFFFFFFFFFFFFFFFFFFFFFFFFFFFFFCA
:20164000FFFFFFFFFFFFFFFFFFFFFFFFFFFFFFFFFFFFFFFFFFFFFFFFFFFFFFFFFFFFFFFFAA
:20166000FFFFFFFFFFFFFFFFFFFFFFFFFFFFFFFFFFFFFFFFFFFFFFFFFFFFFFFFFFFFFFFF8A
:20168000E055F0E0EB52FE4F8AE080839F5F9093D30108954091D4012091D301FC010196FD
:2016A0003491332369F02035C8F7E22FE40FE03508F0E055F0E0EB52FE4F30832F5FEECF04
:2016C0002093D30108954091D4012091D301FC0101963491332369F02035C8F7E22FE40F9B
:2016E000E03508F0E055F0E0EB52FE4F30832F5FEECF2093D301203568F4E42FE20FE035FF
:2017000008F0E055F0E0EB52FE4F8AE080832F5F2093D3010895DC012091D4018091D301DB
:201720009D91992369F08035D8F7E82FE20FE03508F0E055F0E0EB52FE4F90838F5FF0CF7E
:201740008093D30108950F931F93DF93CF93CDB7DEB7C055D0400FB6F894DEBF0FBECDBF58
:20176000FE01E95AFF4F419151918E010F5F1F4FC80160E570E09F010E94D7002091D401BD
:201780008091D301D8010DC0803550F4E82FE20FE03508F0E055F0E0EB52FE4F90838F5F20
:2017A00011969C91992381F78093D301C05BDF4F0FB6F894DEBF0FBECDBFCF91DF911F912A
:2017C0000F9108954F925F926F927F928F929F92AF92BF92CF92DF92EF92FF920F931F93CC
:2017E000F894209184003091850078944090290250902A0224193509609025027090260215
:201800008090270290902802C90164EC79E00E94290D5B018CE396EFAC01649FC001659F35
:20182000900D749F900D1124820F931F6AEF70E00E94290D6B017B0100E010E0B50180E094
:2018400090E02AE030E040E050E00E940A0D660E771E881E991EE60CF71C081D191DE092BD
:201860002502F092260200932702109328028AEF90E0C89E9001C99E300DD89E300D1124A2
:2018800084EC99E0AC01A49EC001A59E900DB49E900D1124840D951D280F391F30932A02EA
:2018A000209329021F910F91FF90EF90DF90CF90BF90AF909F908F907F906F905F904F9066
:2018C0000895609125027091260280912702909128020895CF93DF930E94CF0C0E94D4053C
:2018E000C0E0D0E00E946A042097E1F30E940000F9CFFC0120E030E08081882311F421E0D4
:2019000030E0C9010895FC0181E0808308951F920F920FB60F9211242F933F938F939F937D
:20192000AF93BF9380912F0290913002A0913102B0913202309133020196A11DB11D232F3A
:201940002D5F2D3720F02D570196A11DB11D2093330280932F0290933002A0933102B093B6
:20196000320280912B0290912C02A0912D02B0912E020196A11DB11D80932B0290932C0221
:20198000A0932D02B0932E02BF91AF919F918F913F912F910F900FBE0F901F90189578948F
:2019A00084B5826084BD84B5816084BD85B5826085BD85B5816085BDEEE6F0E0808181602F
:2019C0008083E1E8F0E01082808182608083808181608083E0E8F0E0808181608083E1EBC5
:2019E000F0E0808184608083E0EBF0E0808181608083EAE7F0E08081846080838081826043
:201A000080838081816080838081806880831092C1000895629FD001739FF001829FE00D0F
:201A2000F11D649FE00DF11D929FF00D839FF00D749FF00D659FF00D9927729FB00DE11DB0
:201A4000F91F639FB00DE11DF91FBD01CF0111240895AA1BBB1B51E107C0AA1FBB1FA61745
:201A6000B70710F0A61BB70B881F991F5A95A9F780959095BC01CD010895A1E21A2EAA1B45
:201A8000BB1BFD010DC0AA1FBB1FEE1FFF1FA217B307E407F50720F0A21BB30BE40BF50B03
:201AA000661F771F881F991F1A9469F760957095809590959B01AC01BD01CF01089597FB64
:201AC000092E05260ED057FD04D0D7DF0AD0001C38F450954095309521953F4F4F4F5F4FB7
:201AE0000895F6F790958095709561957F4F8F4F9F4F0895EE0FFF1F0590F491E02D099411
:201B00002F923F924F925F926F927F928F929F92AF92BF92CF92DF92EF92FF920F931F9333
:201B2000CF93DF93CDB7DEB7CA1BDB0B0FB6F894DEBF0FBECDBF09942A88398848885F84E3
:201B40006E847D848C849B84AA84B984C884DF80EE80FD800C811B81AA81B981CE0FD11D09
:201B60000FB6F894DEBF0FBECDBFED010895F894FFCF53485254004C4F4E4700535452547B
:201B80000053544F500053594E43004F56524E004F5448520000FFFFFFFFFFFFFFFFFFFF4A
:201BA000FFFFFFFFFFFFFFFFFFFFFFFFFFFFFFFFFFFFFFFFFFFFFFFFFFFFFFFFFFFFFFFF45
:201BC000FFFFFFFFFFFFFFFFFFFFFFFFFFFFFFFFFFFFFFFFFFFFFFFFFFFFFFFFFFFFFFFF25
:201BE000FFFFFFFFFFFFFFFFFFFFFFFFFFFFFFFFFFFFFFFFFFFFFFFFFFFFFFFFFFFFFFFF05
:201C0000991F1A9469F760957095809590959B01AC01BD01CF01089597FB092E05260ED084
:201C200057FD04D0D7DF0AD0001C38F450954095309521953F4F4F4F5F4F0895F6F79095E6
:201C40008095709561957F4F8F4F9F4F0895EE0FFF1F0590F491E02D09942F923F924F92EB
:201C60005F926F927F928F929F92AF92BF92CF92DF92EF92FF920F931F93CF93DF93CDB7ED
:201C8000DEB7CA1BDB0B0FB6F894DEBF0FBECDBF09942A88398848885F846E847D848C84D7
:201CA0009B84AA84B984C884DF80EE80FD800C811B81AA81B981CE0FD11D0FB6F894DEBFBD
:201CC0000FBECDBFED010895F894FFCF53485254004C4F4E4700535452540053544F5000C2
:201CE00053594E43004F56524E004F5448520000FFFFFFFFFFFFFFFFFFFFFFFFFFFFFFFF35
:201D0000FFFFFFFFFFFFFFFFFFFFFFFFFFFFFFFFFFFFFFFFFFFFFFFFFFFFFFFFFFFFFFFFE3
:201D2000FFFFFFFFFFFFFFFFFFFFFFFFFFFFFFFFFFFFFFFFFFFFFFFFFFFFFFFFFFFFFFFFC3
:201D4000FFFFFFFFFFFFFFFFFFFFFFFFFFFFFFFFFFFFFFFFFFFFFFFFFFFFFFFFFFFFFFFFA3
:201D6000FFFFFFFFFFFFFFFFFFFFFFFFFFFFFFFFFFFFFFFFFFFFFFFFFFFFFFFFFFFFFFFF83
:207800000C94343C0C94513C0C94513C0C94513C0C94513C0C94513C0C94513C0C94513C1D
:207820000C94513C0C94513C0C94513C0C94513C0C94513C0C94513C0C94513C0C94513CE0
:207840000C94513C0C94513C0C94513C0C94513C0C94513C0C94513C0C94513C0C94513CC0
:207860000C94513C0C94513C11241FBECFEFD8E0DEBFCDBF11E0A0E0B1E0ECE9FFE702C07E
:2078800005900D92A230B107D9F712E0A2E0B1E001C01D92AD30B107E1F70E942D3D0C94CC
:2078A000CC3F0C94003C982F9595959595959595905D8F708A307CF0282F295A8091C000B5
:2078C00085FFFCCF9093C6008091C00085FFFCCF2093C6000895282F205DF0CF982F8091CF
:2078E000C00085FFFCCF9093C6000895EF92FF920F931F93EE24FF2487018091C00087FD7B
:2079000017C00894E11CF11C011D111D81E4E81682E4F8068FE0080780E0180770F3E09106
:207920000401F091050109958091C00087FFE9CF8091C6001F910F91FF90EF9008950E949A
:20794000763C982F8091C00085FFFCCF9093C60091362CF490330CF09053892F08959755DB
:20796000892F08951F930E949F3C182F0E949F3C1295107F810F1F9108951F93182F882308
:2079800021F00E94763C1150E1F71F9108951F93182F0E94763C803249F0809103018F5FC1
:2079A000809303018530C1F01F9108958091C00085FFFCCF84E18093C6008091C00085FF4A
:2079C000FCCF1093C6008091C00085FFFCCF80E18093C6001F910895E0910401F0910501CF
:2079E00009951F9108950E94763C803241F0809103018F5F80930301853081F00895809177
:207A0000C00085FFFCCF84E18093C6008091C00085FFFCCF80E18093C6000895E0910401AC
:207A2000F09105010995089540E951E08823A1F02D9A28EE33E0FA013197F1F72150304072
:207A4000D1F72D9828EE33E0FA013197F1F721503040D1F7815061F708953F924F925F92B3
:207A60006F927F928F929F92AF92BF92CF92DF92EF92FF920F931F93CF93DF93000080E1A3
:207A80008093C4001092C50088E18093C10086E08093C2005098589A259A81E00E94143D43
:207AA00024E1F22E9EE1E92E85E9D82E0FE0C02E10E1B12EAA24A394B1E49B2EA6E58A2E44
:207AC000F2E57F2EE0E26E2E79E4572E63E5462E50E5352E0E94763C8033B1F18133B9F187
:207AE000803409F46FC0813409F476C0823409F485C0853409F488C0803531F1823521F128
:207B0000813511F1853509F485C0863509F48DC0843609F496C0843709F403C1853709F46A
:207B200072C1863709F466C0809103018F5F80930301853079F6E0910401F0910501099559
:207B40000E94763C803351F60E94F33CC3CF0E94763C803249F78091C00085FFFCCFF0928C
:207B6000C6008091C00085FFFCCF9092C6008091C00085FFFCCF8092C6008091C00085FFEA
:207B8000FCCF7092C6008091C00085FFFCCF6092C6008091C00085FFFCCF5092C6008091A1
:207BA000C00085FFFCCF4092C6008091C00085FFFCCF3092C6008091C00085FFFCCFB09214
:207BC000C60088CF0E94763C863808F4BDCF0E94763C0E94F33C7ECF0E94763C803809F473
:207BE0009CC0813809F40BC1823809F43CC1883909F48FC080E00E94C73C6CCF84E10E949F
:207C0000BD3C0E94F33C66CF85E00E94BD3C0E94F33C60CF0E94763C809306010E94763CA3
:207C2000809307010E94F33C55CF0E94763C803309F41DC183E00E94BD3C80E00E94C73C4F
:207C400049CF0E94763C809309020E94763C8093080280910C028E7F80930C020E94763C88
:207C6000853409F415C18091080290910902892B89F000E010E00E94763CF801E85FFE4F53
:207C800080830F5F1F4F80910802909109020817190788F30E94763C803209F045CF8091E0
:207CA0000C0280FF01C16091060170910701660F771F7093070160930601A0910802B091E8
:207CC00009021097C9F0E8E0F1E09B01AD014E0F5F1FF999FECF32BD21BD819180BDFA9A6C
:207CE000F99A2F5F3F4FE417F50799F76A0F7B1F70930701609306018091C00085FFFCCF16
:207D0000F092C6008091C00085FFFCCFB092C600E1CE83E00E94C73CDDCE82E00E94C73C8A
:207D2000D9CE0E94763C809309020E94763C809308028091060190910701880F991F909306
:207D40000701809306010E94763C853409F4A6C080910C028E7F80930C020E94763C80323E
:207D600009F0B8CE8091C00085FFFCCFF092C600609108027091090261157105B9F140E05F
:207D800050E080910C02A82FA170B82FB27011C0BB2309F45CC0E0910601F0910701319613
:207DA000F0930701E09306014F5F5F4F46175707E8F4AA2369F3F999FECF209106013091CA
:207DC000070132BD21BDF89A90B58091C00085FFFCCF9093C6002F5F3F4F30930701209354
:207DE00006014F5F5F4F4617570718F38091C00085FDE5CE8091C00085FFF8CFE0CE81E029
:207E00000E94C73C67CE0E94763C803209F08CCE8091C00085FFFCCFF092C6008091C000F6
:207E200085FFFCCFE092C6008091C00085FFFCCFD092C6008091C00085FFFCCFC092C6003B
:207E40008091C00085FFFCCFB092C60043CEE0910601F091070194918091C00085FFFCCFA3
:207E60009093C6009CCF80E10E94C73C33CE0E94763C0E94763C182F0E94763C112309F433
:207E800083C0113009F484C08FE00E94C73C22CE80910C02816080930C02E5CE80910C0226
:207EA000816080930C0259CF809107018823880F880B8A2180930B0280910601909107019E
:207EC000880F991F90930701809306018091080280FF09C0809108029091090201969093AA
:207EE000090280930802F894F999FECF1127E0910601F0910701C8E0D1E0809108029091A1
:207F00000902103091F40091570001700130D9F303E000935700E895009157000170013067
:207F2000D9F301E100935700E895099019900091570001700130D9F301E000935700E8954C
:207F40001395103498F011270091570001700130D9F305E000935700E8950091570001707A
:207F60000130D9F301E100935700E8953296029709F0C7CF103011F00296E5CF11248091F8
:1E7F8000C00085FFB9CEBCCE8EE10E94C73CA2CD85E90E94C73C9ECDF894FFCF8000B3
:00000001FF
