:200000000C94C1000C94E9000C94E9000C94E9000C94E9000C94E9000C94E9000C94F708AA
:200020000C94E9000C94E9000C94E9000C94E9000C94E9000C94E9000C94E9000C94E90078
:200040000C94DE0D0C94E9000C94E9000C94E9000C94E9000C94E9000C94E9000C94E90056
:200060000C94E9000C94E9002045525200202A004C494E206572726F72733A2000776169E0
:2000800074696E672E2E2E00636F6E6669672073746174653A20756E6B6E6F776E20282596
:2000A000642900636F6E6669672073746174653A202D3E25640A00636F6E66696720746F2B
:2000C00067676C65640A00636F6E666967206C6F616465643A2025640A00636F6E666967B1
:2000E0002073746174653A2025640A00696E6A656374696F6E2073746174653A20756E6B26
:200100006E6F776E202825642900696E6A656374696F6E2073746174653A2025640A004CE6
:20012000494E3A2025752C2025752C2025752C2025752C2025752C2025752C2025752C2084
:2001400025750A004552524F523A206B4C696E5370656564206F7574206F662072616E6763
:200160006500010001020501040A01080F01101401201901401E0100BD03980594068C07A1
:20018000520B11241FBECFEFD8E0DEBFCDBF11E0A0E0B1E0E6EAFDE102C005900D92AC32CD
:2001A000B107D9F712E0ACE2B1E001C01D92A83EB107E1F711E0C2E8D1E004C02297FE01F8
:2001C0000E94960EC837D107C9F70E94C10D0C94D10E0C940000DF92EF92FF920F931F93DC
:2001E0007B018C01FB010995D82EC8010196F7010995982F8D2D1F910F91FF90EF90DF9012
:200200000895DF92EF92FF920F931F93D72E7A018C01FA010995C80101966D2DF701099534
:200220001F910F91FF90EF90DF900895AEE0B0E0ECE1F1E00C94A80E8C0177FF02C060E03D
:2002400070E8615070407E836D831A8309838EE08C83CE010196BA01A9010E9440012D81F2
:200260003E8137FD09C0EF81F8852E173F070CF4F901E00FF11F10822E96E4E00C94C40EC5
:20028000ABE0B0E0E6E4F1E00C949A0E3C012B015A01FC0117821682838181FD03C06FEFCB
:2002A0007FEFC6C19AE0892E1E010894211C311CF3012381F20123FD859123FF81912F01AE
:2002C000882309F4B2C1853239F423FD859123FF81912F01853229F490E0B3010E943303B5
:2002E000E7CF982FFF24EE249924FFE1FF15D0F09B3269F09C3228F4903259F0933291F476
:200300000EC09D3249F0903369F441E024C052E0F52A84E0F82A28C098E0F92A25C0E0E1E2
:20032000FE2A22C0F7FC29C0892F80538A3070F4F6FE05C0989C902C1124980E15C0E89C51
:20034000E02C1124E80EF0E2FF2A0EC09E3229F4F6FC6BC140E4F42A07C09C3619F450E872
:20036000F52A02C0983649F4F20123FD959123FF91912F01992309F0B8CF892F8554833064
:2003800018F08052833038F444E050E0A40EB51E5FE359830FC0933631F0933779F09335F9
:2003A00009F056C020C0F5018081898342E050E0A40EB51E610101E010E012C0F501C08039
:2003C000D180F6FC03C06FEF7FEF02C0692D70E042E050E0A40EB51EC6010E9428038C01AB
:2003E0005FE7F52214C0F501C080D180F6FC03C06FEF7FEF02C0692D70E042E050E0A40E18
:20040000B51EC6010E941D038C0150E8F52AF3FE07C01AC080E290E0B3010E943303EA942E
:200420008E2D90E008171907A8F30EC0F601F7FC8591F7FE81916F0190E0B3010E94330376
:20044000E110EA94015010400115110579F7EAC0943611F0993669F5F7FE08C0F5012081FA
:2004600031814281538184E090E00AC0F501808191819C01442737FD4095542F82E090E026
:20048000A80EB91E9FE6F92257FF09C050954095309521953F4F4F4F5F4FE0E8FE2ACA0146
:2004A000B901A1012AE030E00E945F03D82ED21840C0953729F41F2D1F7E2AE030E01DC009
:2004C0001F2D197F9F3661F0903720F4983509F0ACC00FC0903739F0983709F0A6C004C054
:2004E00028E030E00AC0106114FD146020E130E004C014FD166020E132E017FF08C0F501E1
:20050000608171818281938144E050E008C0F50180819181BC0180E090E042E050E0A40E3B
:20052000B51EA1010E945F03D82ED2188FE7F82EF122F6FE0BC05EEFF522D91438F4F4FE75
:2005400007C0F2FC05C08FEEF82202C01D2D01C0192DF4FE0DC0FE01ED0DF11D80818033FD
:2005600019F499EEF92208C01F5FF2FE05C003C08F2D867809F01F5F0F2DF3FC14C0F0FEF0
:200580000FC01E1510F09D2C0BC09D2C9E0C911A1E2D06C080E290E0B3010E9433031F5FBA
:2005A0001E15C0F304C01E1510F4E11A01C0EE2404FF0FC080E390E0B3010E94330302FF5A
:2005C0001DC001FD03C088E790E00EC088E590E00BC0802F867891F001FF02C08BE201C00A
:2005E00080E2F7FC8DE290E0B3010E94330306C080E390E0B3010E9433039A94D914C0F348
:20060000DA94F101ED0DF11D808190E0B3010E943303DD20A9F706C080E290E0B3010E94EA
:200620003303EA94EE20C1F743CEF30166817781CB012B96E2E10C94B60EFC010590615065
:2006400070400110D8F7809590958E0F9F1F0895FC016150704001900110D8F780959095CF
:200660008E0F9F1F08950F931F93CF93DF938C01EB018B8181FF1BC082FF0DC02E813F81BD
:200680008C819D812817390764F4E881F9810193F983E88306C0E885F985802F0995892B48
:2006A00031F48E819F8101969F838E8302C00FEF1FEFC801DF91CF911F910F910895FA01CD
:2006C000AA27283051F1203181F1E8946F936E7F6E5F7F4F8F4F9F4FAF4FB1E03ED0B4E0E9
:2006E0003CD0670F781F891F9A1FA11D680F791F8A1F911DA11D6A0F711D811D911DA11D8D
:2007000020D009F468943F912AE0269F11243019305D3193DEF6CF010895462F4770405D78
:200720004193B3E00FD0C9F7F6CF462F4F70405D4A3318F0495D31FD4052419302D0A9F7EC
:20074000EACFB4E0A6959795879577956795BA95C9F700976105710508959B01AC010A2E21
:2007600006945795479537952795BA95C9F7620F731F841F951FA01D0895CF92DF92EF9279
:20078000FF921F9395E2C92ED12CD0922E01C0922D0183E2E82EF12CF0923001E0922F01AD
:2007A00082E080933101219A29980E94B80D6093320170933301809334019093350110920F
:2007C000360111E010932C01E0912D01F0912E01908180913101809589238083D09239011E
:2007E000C0923801F0923B01E0923A0110933C01209A28980E94B80D60933D0170933E01CF
:2008000080933F01909340011092410110933701E0913801F0913901908180913C01809589
:20082000892380831F91FF90EF90DF90CF900895CF93DF93EC0188818230C9F08330B1F156
:20084000813009F04BC08A85882309F447C082E08883E981FA8180819D81892B80830E945B
:20086000B80D6E837F83888799871A8637C00E94B80D2E813F8148855985621B730B840BEF
:20088000950B653171058105910540F183E08883E981FA8190818D818095892380830E9487
:2008A000B80D6E837F838887998718C00E94B80D2E813F8148855985621B730B840B950BCE
:2008C0006F3171058105910548F081E08883E981FA8190818D81809589238083DF91CF91AA
:2008E0000895AF92BF92CF92DF92EF92FF920F931F93DF93CF93CDB7DEB72C970FB6F89490
:20090000DEBF0FBECDBFEE24E3946E010894C11CD11C22E0A22EB12CAC0EBD1E0E94390D57
:200920000E94330C87E391E00E9418048CE291E00E9418040E945207809142018823A1F411
:2009400082E491E00E94D00D892B71F00E94B80D60935701709358018093590190935A0133
:2009600082E491E00E94DA0D0E94B80D20915701309158014091590150915A01621B730B2B
:20098000840B950B685B7B408040904080F0E09241018DE790E00E94CE0C0E94B80D60933C
:2009A0005701709358018093590190935A0180914A018823A1F48AE491E00E94D00D892BEA
:2009C00071F00E94B80D609353017093540180935501909356018AE491E00E94DA0D0E94C3
:2009E000F008182F882361F0E09236010E94B80D60935701709358018093590190935A011A
:200A000080915201812B80935201882349F10E94B80D2091530130915401409155015091F1
:200A20005601621B730B840B950B695E734080409040B0F080E790E00E94B50C80915201ED
:200A40000E94DD0B0E94A20C0E94B80D6093530170935401809355019093560110925201DE
:200A600019821C86C6010E94BE08882309F456CFC6010E947008F82E882319F0E0924101CE
:200A800002C0E092360100E010E00EC00115110519F080E20E94210CF501E00FF11D8081F3
:200AA0000E94570C0F5F1F4F898190E0081719076CF38C85882321F08DE690E00E94B50C2A
:200AC000FF2021F488E690E00E94B50C0E94A20C0E94B80D609357017093580180935901D6
:200AE00090935A01FF2009F419CFC6010E94B00615CF0E940E0C0E9441080E945C0B0E941F
:200B00005907789408959C01F999FECF32BD21BDF89A80B508959C01F999FECF1FBA32BDDB
:200B200021BD60BD0FB6F894FA9AF99A0FBE08950E94B80D60935C0170935D0180935E014E
:200B400090935F0108958093600100D000D0EDB7FEB731962AED30E0ADB7BEB712963C93CA
:200B60002E931197828313820E940E0D0F900F900F900F900E94B80D60935C0170935D0121
:200B800080935E0190935F01089580E090E063E875E00E94EB0020E08856954409F021E015
:200BA00020935B0100D000D0EDB7FEB7319687EC90E0ADB7BEB712969C938E931197228365
:200BC00013820E940E0D0F900F900F900F90089580915B01882319F464E372E102C068E6DB
:200BE00075E480E090E04BE855E00E94010100D087EB90E0EDB7FEB7928381830E940E0DDF
:200C00000F900F900E94C50508951F93209160012130B1F0213038F0223009F452C02330AA
:200C200009F058C053C080917701823009F071C01092620180918B018093610181E060C093
:200C40000E94B80D20915C0130915D0140915E0150915F01621B730B840B950B61527E44F0
:200C60008040904008F04BC020916201263008F44AC045C0253061F583E042C010918B012F
:200C8000809161018130D1F41230C1F42F5F2093620100D000D0EDB7FEB7319683EA90E033
:200CA000ADB7BEB712969C938E931197228313820E940E0D0F900F900F900F901093610143
:200CC00028C080917701813021F502C00E94E80580E016C000D000D0EDB7FEB7319688E825
:200CE00090E0ADB7BEB712969C938E931197228313820E940E0D0F900F900F900F9082E036
:200D00000E94A30506C080917701813009F0B6CFB1CF1F9108950E94050608950E94C50588
:200D200080E00E94A30508950E94B80D609368017093690180936A0190936B018BE290E052
:200D400090936D0180936C0189E290E090936F0180936E0180E880937001579A5F98089521
:200D60000E94F70708958093710100D000D0EDB7FEB731962AE031E0ADB7BEB712963C9386
:200D80002E931197828313820E940E0D0F900F900F900F900E94B80D6093680170936901E7
:200DA00080936A0190936B0108952091710180E0223009F481E080936301882349F0E0918A
:200DC0006C01F0916D01808190917001892B09C0E0916C01F0916D01908180917001809532
:200DE0008923808380917701813029F4222309F458C080E03BC02130F9F0213028F0223043
:200E000009F12330B1F50895823009F04AC00E94B80D209178013091790140917A01509194
:200E20007B01621B730B840B950B685E734080409040B8F181E01AC080915B018823A9F06E
:200E400082E014C00E94B80D209168013091690140916A0150916B01621B730B840B950BFD
:200E6000655F714080409040E0F083E00E94B306089500D000D0EDB7FEB731968CEE90E098
:200E8000ADB7BEB712969C938E931197228313820E940E0D0F900F900F900F9080E00E9464
:200EA000B30608950E9438080E948B060E94D50608950E9461070E948E0680E00E94B306B2
:200EC000089508950F931F938C01FC01608352834183348323830E94B80DF80166837783DE
:200EE000808791870E94B80DF80162877387848795870E94B80DF801608B718B828B938BF7
:200F000015820E94B80DF801668377838087918716861F910F91089582E791E063E048EEFC
:200F200053E020ED37E00E94620786E891E063E048EE53E020ED37E00E94620708951F9346
:200F4000CF93DF93EC01162F8D81813029F0823061F4662351F002C0662339F40E94B80D03
:200F60006A877B878C879D873EC08E858823B1F08F85811799F40E94B80D288939894A8904
:200F80005B89621B730B840B950B29813A8140E050E0621773078407950708F181E08E8705
:200FA0001F870E94B80D688B798B8A8B9B8B9E8588819817C0F00E94B80D6A877B878C87FA
:200FC0009D870E94B80D6E837F83888799871E86112311F481E001C082E08D8304C08E851C
:200FE0008F5F8E87DECFDF91CF911F910895FC0183858823C1F481818E3851F480818A30F7
:2010000091F46381647086E891E00E949F0708958D3049F480818A3031F46781607882E7CC
:2010200091E00E949F070895CF93DF93EC018D818823D9F00E94B80D2A853B854C855D858E
:20104000621B730B840B950B2B813C8140E050E0621773078407950740F01D820E94B80D5D
:201060006E837F83888799871E86DF91CF91089582E791E00E94140886E891E00E94140808
:2010800008951092800083E0809381001092850010928400109289001092880010928B00CB
:2010A00010928A0010926F0016BA0895482F282F220F220F622F6095822F880F982F990F19
:2010C000392F330F532F550F86278927922793278527807895279074892B4F73842B08958A
:2010E0000F931F93CF93DF93EC010881013021F0802F8350883048F51981812F0E9456084F
:20110000181719F5023010F491E020C0FE01E00FF11DE081DE01119620E030E003C08D9137
:20112000280F311D0150D9F7332339F0832F90E0AC01420F511D9A01F7CF90E0822F809565
:20114000E81391E081E0982701C090E0892FDF91CF911F910F910895FC0180E09BE491836D
:201160008083128288E6838386E384838DE0858386E086838EE490E087830895582F692F68
:2011800090910B0280910B029817E1F3F89440910D0280910C02481711F480E01FC0842F9F
:2011A00090E0FC01EE0FFF1FE80FF91FEE0FFF1FEE0FFF1F252F362FC901DC01E655FE4F7A
:2011C0008CE001900D928150E1F7842F8F5F80930D02883010F010920D0281E07894089594
:2011E000F89480910E0210920E02789408951F920F920FB60F9211241F932F933F934F93D2
:201200005F936F937F938F939F93AF93BF93EF93FF93439A80910A02813021F0823009F065
:201220001BC264C04A9B04C05C9A1092A20122C25C988091A2018F5F8093A2018A3008F4E3
:2012400019C2409A20918400309185001092B2004A9909C08091840090918500821B930BE8
:201260008F3F910598F340988091A001482F50E020918400309185001092B20080918400EA
:2012800090918500821B930B84179507A8F35C9A82E080930A021092A3011092A401809186
:2012A0000C0290E0FC01EE0FFF1FE80FF91FEE0FFF1FEE0FFF1FE655FE4F1082138681E03F
:2012C0008093A5011092A60120918400309185001092B2004A9BBBC18091840090918500A1
:2012E000821B930B8F3F910598F3B1C12C9A1091A5018091A6011123A1F0813071F0813005
:2013000018F0823019F50BC089B1982F947082FF02C05C9A1CC05C981AC05C9A17C05C9891
:2013200013C0813071F0813018F0823079F40BC086B1982F927081FF02C0429A08C0429865
:2013400006C0429A03C0429890E001C091E02C982091A401222349F52091A301992329F0E5
:20136000222309F473C094E072C081E08093A4011092A7018093A8011092A901223088F01D
:2013800080916401882369F02250283050F08091230190916701892311F482E003C081E0D4
:2013A00001C080E08093A60165C1293008F041C0992339F08091A7019091A801892B8093AB
:2013C000A7018091A801880F8093A801E22FEF5FE093A4018091A601882319F081E0809301
:2013E000A9019091A301923000F1E930F1F0809164018823D1F0892F8250E150883048F440
:20140000813099F490E0E23009F091E081E098270DC0F0E0ED5DFE4F808190916701892318
:2014200011F492E003C091E001C090E09093A60121C14091A3014F5F4093A3011092A40143
:20144000992361F4442311F098E001C090E12B9A80910E02982B90930E0204C15091A7013F
:20146000413069F4553509F498C02B9A80910E02806180930E022B9840930A02F7C080916B
:201480000C0290E02091A901FC01EE0FFF1FE80FF91FEE0FFF1FEE0FFF1FE655FE4F80818D
:2014A000DF01A80FB11D11965C938F5F80838385822B8387433020F180916401882309F4DF
:2014C0006CC02091650130916601250F311D30936601209365014A3009F05FC0832F332342
:2014E00031F090E0BC01620F711D9B01F7CF2093650110926601822F8095809367014DC0CD
:20150000423009F04AC05E3811F45E9A5E9880916301882321F080E05E3809F481E0809335
:2015200064015093650110926601109267018091A101682F70E0409184005091850089B15B
:20154000847096B192701092B20039B13470882311F03323B1F026B12270992321F022234E
:2015600011F492E00FC08091840090918500841B950B8617970710F090E004C0832F922FC9
:20158000E2CF91E01092A501923019F081E08093A501992309F043C023C08091A101682F17
:2015A00070E020918400309185001092B200112319F089B1847002C086B18270882379F1A1
:2015C0008091840090918500821B930B8617970760F3442329F42B9A80910E02816040C0BC
:2015E00080910C028F5F80930C02883010F010920C0290910D0280910C029817A1F52B9AFC
:2016000080910E02806280930E022B98892F8F5F80930D02883038F110920D0224C0809192
:201620000C0290E0FC01EE0FFF1FE80FF91FEE0FFF1FEE0FFF1FE655FE4F80818A3028F074
:201640002B9A80910E0282600BC01092A60180919E018093B2000EC02B9A80910E028064A1
:2016600080930E022B9881E080930A021092A201429A5C9A80910B028F5F80930B024398E6
:20168000FF91EF91BF91AF919F918F917F916F915F914F913F912F911F910F900FBE0F902F
:2016A0001F901895EAEAF1E0108213863C9682E0EA30F807C9F708958AE991E00E94AC081A
:2016C00052985A9A3A9A429A3998419A549A5C9A389A4098249A2C98239A2B983B9A439890
:2016E000569A5E9810920C0210920D0281E080930A021092A201429A5C9A539A83E38093A6
:20170000B00080919C01882311F482E001C084E088608093B1001092B20080919D018150B4
:201720008093B30081508093B40082E08093700087BB10920E020E944F0C8DB79EB7429703
:201740000FB6F8949EBF0FBE8DBFEDB7FEB731968FE191E0ADB7BEB712969C938E93119748
:2017600080919A0190919B019383828381E090E09583848380919C018683178280919D01F6
:201780008087118680919E018287138680919F01848715868091A001868717868091A101F3
:2017A000808B118A0E940E0D8DB79EB742960FB6F8949EBF0FBE8DBF08950F931F93CF933B
:2017C000DF9320E0C0E0D0E0082F10E0FE01EE0FFF1FEC0FFD1FEE59FE4FE4918E2F90E0B9
:2017E00080239123892B89F0222319F080E20E94210CFE01EE0FFF1FEC0FFD1FED59FE4F22
:20180000859194910E94F60C21E02196C730D105E9F6DF91CF911F910F91089510926002C4
:2018200010925F021092C50080E18093C40082E08093C00088E08093C10086E08093C2005A
:20184000089590915F02983768F4E0916002E90FE83708F0E857F0E0EF59FD4F80839F5FB8
:2018600090935F02089590915F029923B9F08091C00085FF13C080916002E82FF0E0EF5996
:20188000FD4FE0818F5F80936002883710F010926002915090935F02E093C600089502C078
:2018A0000E94330C80915F028823D1F70895282F22952F7090915F022A3068F49837D8F445
:2018C000E0916002E90FE83708F0E857F0E0EF59FD4F205D0CC0983770F4E0916002E90F3C
:2018E000E83708F0E857F0E0EF59FD4F295A20839F5F90935F028F7090915F028A3088F4CF
:201900009837F8F4E0916002E90FE83708F0E857F0E0EF59FD4F805D80839F5F90935F0225
:201920000895983770F4E0916002E90FE83708F0E857F0E0EF59FD4F895A80839F5F90934B
:201940005F02089590915F02983770F4E0916002E90FE83708F0E857F0E0EF59FD4F8AE0E5
:2019600080839F5F90935F0208954091600220915F02FC0101963491332369F02837C8F7DA
:20198000E22FE40FE83708F0E857F0E0EF59FD4F30832F5FEECF20935F02089540916002A7
:2019A00020915F02FC0101963491332369F02837C8F7E22FE40FE83708F0E857F0E0EF597D
:2019C000FD4F30832F5FEECF20935F02283768F4E42FE20FE83708F0E857F0E0EF59FD4F30
:2019E0008AE080832F5F20935F020895DC012091600280915F029D91992369F08837D8F708
:201A0000E82FE20FE83708F0E857F0E0EF59FD4F90838F5FF0CF80935F020895DF93CF935F
:201A2000CDB7DEB7FE013596419151918FE092E060E570E09F010E9416012091600280911C
:201A40005F02AFE0B2E00DC0883750F4E82FE20FE83708F0E857F0E0EF59FD4F90838F5F71
:201A600011969C91992381F780935F02CF91DF9108954F925F926F927F928F929F92AF9206
:201A8000BF92CF92DF92EF92FF920F931F93F894209184003091850078944090DD0250901B
:201AA000DE02241935096090D9027090DA028090DB029090DC02C90164EC79E00E94800E96
:201AC0005B018CE396EFAC01649FC001659F900D749F900D1124820F931F6AEF70E00E9431
:201AE000800E6B017B0100E010E0B50180E090E02AE030E040E050E00E94610E660E771E96
:201B0000881E991EE60CF71C081D191DE092D902F092DA020093DB021093DC028AEF90E083
:201B2000C89E9001C99E300DD89E300D112484EC99E0AC01A49EC001A59E900DB49E900DBA
:201B40001124840D951D280F391F3093DE022093DD021F910F91FF90EF90DF90CF90BF90CE
:201B6000AF909F908F907F906F905F904F9008956091D9027091DA028091DB029091DC02C9
:201B80000895CF93DF930E94260E0E947905C0E0D0E00E9471042097E1F30E940000F9CF82
:201BA000FC0120E030E08081882311F421E030E0C9010895FC0181E0808308951F920F929F
:201BC0000FB60F9211242F933F938F939F93AF93BF938091E3029091E402A091E502B09198
:201BE000E6023091E7020196A11DB11D232F2D5F2D3720F02D570196A11DB11D2093E7029B
:201C00008093E3029093E402A093E502B093E6028091DF029091E002A091E102B091E20250
:201C20000196A11DB11D8093DF029093E002A093E102B093E202BF91AF919F918F913F919B
:201C40002F910F900FBE0F901F901895789484B5826084BD84B5816084BD85B5826085BD3C
:201C600085B5816085BDEEE6F0E0808181608083E1E8F0E01082808182608083808181608B
:201C80008083E0E8F0E0808181608083E1EBF0E0808184608083E0EBF0E0808181608083C0
:201CA000EAE7F0E08081846080838081826080838081816080838081806880831092C10081
:201CC0000895629FD001739FF001829FE00DF11D649FE00DF11D929FF00D839FF00D749F18
:201CE000F00D659FF00D9927729FB00DE11DF91F639FB00DE11DF91FBD01CF01112408950D
:201D0000AA1BBB1B51E107C0AA1FBB1FA617B70710F0A61BB70B881F991F5A95A9F780958B
:201D20009095BC01CD010895EE0FFF1F0590F491E02D09942F923F924F925F926F927F9201
:201D40008F929F92AF92BF92CF92DF92EF92FF920F931F93CF93DF93CDB7DEB7CA1BDB0BAF
:201D60000FB6F894DEBF0FBECDBF09942A88398848885F846E847D848C849B84AA84B984CC
:201D8000C884DF80EE80FD800C811B81AA81B981CE0FD11D0FB6F894DEBF0FBECDBFED011F
:201DA0000895F894FFCF53485254004C4F4E4700535452540053544F500053594E43004F9C
:201DC00056524E004F54485200010204081020408000FFFFFFFFFFFFFFFFFFFFFFFFFFFFDF
:201DE000FFFFFFFFFFFFFFFFFFFFFFFFFFFFFFFFFFFFFFFFFFFFFFFFFFFFFFFFFFFFFFFF03
:201E0000FFFFFFFFFFFFFFFFFFFFFFFFFFFFFFFFFFFFFFFFFFFFFFFFFFFFFFFFFFFFFFFFE2
:201E2000FFFFFFFFFFFFFFFFFFFFFFFFFFFFFFFFFFFFFFFFFFFFFFFFFFFFFFFFFFFFFFFFC2
:201E4000FFFFFFFFFFFFFFFFFFFFFFFFFFFFFFFFFFFFFFFFFFFFFFFFFFFFFFFFFFFFFFFFA2
:207800000C94343C0C94513C0C94513C0C94513C0C94513C0C94513C0C94513C0C94513C1D
:207820000C94513C0C94513C0C94513C0C94513C0C94513C0C94513C0C94513C0C94513CE0
:207840000C94513C0C94513C0C94513C0C94513C0C94513C0C94513C0C94513C0C94513CC0
:207860000C94513C0C94513C11241FBECFEFD8E0DEBFCDBF11E0A0E0B1E0ECE9FFE702C07E
:2078800005900D92A230B107D9F712E0A2E0B1E001C01D92AD30B107E1F70E942D3D0C94CC
:2078A000CC3F0C94003C982F9595959595959595905D8F708A307CF0282F295A8091C000B5
:2078C00085FFFCCF9093C6008091C00085FFFCCF2093C6000895282F205DF0CF982F8091CF
:2078E000C00085FFFCCF9093C6000895EF92FF920F931F93EE24FF2487018091C00087FD7B
:2079000017C00894E11CF11C011D111D81E4E81682E4F8068FE0080780E0180770F3E09106
:207920000401F091050109958091C00087FFE9CF8091C6001F910F91FF90EF9008950E949A
:20794000763C982F8091C00085FFFCCF9093C60091362CF490330CF09053892F08959755DB
:20796000892F08951F930E949F3C182F0E949F3C1295107F810F1F9108951F93182F882308
:2079800021F00E94763C1150E1F71F9108951F93182F0E94763C803249F0809103018F5FC1
:2079A000809303018530C1F01F9108958091C00085FFFCCF84E18093C6008091C00085FF4A
:2079C000FCCF1093C6008091C00085FFFCCF80E18093C6001F910895E0910401F0910501CF
:2079E00009951F9108950E94763C803241F0809103018F5F80930301853081F00895809177
:207A0000C00085FFFCCF84E18093C6008091C00085FFFCCF80E18093C6000895E0910401AC
:207A2000F09105010995089540E951E08823A1F02D9A28EE33E0FA013197F1F72150304072
:207A4000D1F72D9828EE33E0FA013197F1F721503040D1F7815061F708953F924F925F92B3
:207A60006F927F928F929F92AF92BF92CF92DF92EF92FF920F931F93CF93DF93000080E1A3
:207A80008093C4001092C50088E18093C10086E08093C2005098589A259A81E00E94143D43
:207AA00024E1F22E9EE1E92E85E9D82E0FE0C02E10E1B12EAA24A394B1E49B2EA6E58A2E44
:207AC000F2E57F2EE0E26E2E79E4572E63E5462E50E5352E0E94763C8033B1F18133B9F187
:207AE000803409F46FC0813409F476C0823409F485C0853409F488C0803531F1823521F128
:207B0000813511F1853509F485C0863509F48DC0843609F496C0843709F403C1853709F46A
:207B200072C1863709F466C0809103018F5F80930301853079F6E0910401F0910501099559
:207B40000E94763C803351F60E94F33CC3CF0E94763C803249F78091C00085FFFCCFF0928C
:207B6000C6008091C00085FFFCCF9092C6008091C00085FFFCCF8092C6008091C00085FFEA
:207B8000FCCF7092C6008091C00085FFFCCF6092C6008091C00085FFFCCF5092C6008091A1
:207BA000C00085FFFCCF4092C6008091C00085FFFCCF3092C6008091C00085FFFCCFB09214
:207BC000C60088CF0E94763C863808F4BDCF0E94763C0E94F33C7ECF0E94763C803809F473
:207BE0009CC0813809F40BC1823809F43CC1883909F48FC080E00E94C73C6CCF84E10E949F
:207C0000BD3C0E94F33C66CF85E00E94BD3C0E94F33C60CF0E94763C809306010E94763CA3
:207C2000809307010E94F33C55CF0E94763C803309F41DC183E00E94BD3C80E00E94C73C4F
:207C400049CF0E94763C809309020E94763C8093080280910C028E7F80930C020E94763C88
:207C6000853409F415C18091080290910902892B89F000E010E00E94763CF801E85FFE4F53
:207C800080830F5F1F4F80910802909109020817190788F30E94763C803209F045CF8091E0
:207CA0000C0280FF01C16091060170910701660F771F7093070160930601A0910802B091E8
:207CC00009021097C9F0E8E0F1E09B01AD014E0F5F1FF999FECF32BD21BD819180BDFA9A6C
:207CE000F99A2F5F3F4FE417F50799F76A0F7B1F70930701609306018091C00085FFFCCF16
:207D0000F092C6008091C00085FFFCCFB092C600E1CE83E00E94C73CDDCE82E00E94C73C8A
:207D2000D9CE0E94763C809309020E94763C809308028091060190910701880F991F909306
:207D40000701809306010E94763C853409F4A6C080910C028E7F80930C020E94763C80323E
:207D600009F0B8CE8091C00085FFFCCFF092C600609108027091090261157105B9F140E05F
:207D800050E080910C02A82FA170B82FB27011C0BB2309F45CC0E0910601F0910701319613
:207DA000F0930701E09306014F5F5F4F46175707E8F4AA2369F3F999FECF209106013091CA
:207DC000070132BD21BDF89A90B58091C00085FFFCCF9093C6002F5F3F4F30930701209354
:207DE00006014F5F5F4F4617570718F38091C00085FDE5CE8091C00085FFF8CFE0CE81E029
:207E00000E94C73C67CE0E94763C803209F08CCE8091C00085FFFCCFF092C6008091C000F6
:207E200085FFFCCFE092C6008091C00085FFFCCFD092C6008091C00085FFFCCFC092C6003B
:207E40008091C00085FFFCCFB092C60043CEE0910601F091070194918091C00085FFFCCFA3
:207E60009093C6009CCF80E10E94C73C33CE0E94763C0E94763C182F0E94763C112309F433
:207E800083C0113009F484C08FE00E94C73C22CE80910C02816080930C02E5CE80910C0226
:207EA000816080930C0259CF809107018823880F880B8A2180930B0280910601909107019E
:207EC000880F991F90930701809306018091080280FF09C0809108029091090201969093AA
:207EE000090280930802F894F999FECF1127E0910601F0910701C8E0D1E0809108029091A1
:207F00000902103091F40091570001700130D9F303E000935700E895009157000170013067
:207F2000D9F301E100935700E895099019900091570001700130D9F301E000935700E8954C
:207F40001395103498F011270091570001700130D9F305E000935700E8950091570001707A
:207F60000130D9F301E100935700E8953296029709F0C7CF103011F00296E5CF11248091F8
:1E7F8000C00085FFB9CEBCCE8EE10E94C73CA2CD85E90E94C73C9ECDF894FFCF8000B3
:00000001FF
