:200000000C9481000C94A9000C94A9000C94A9000C94A9000C94A9000C94A9000C94E00683
:200020000C94A9000C94A9000C94A9000C94A9000C94A9000C94A9000C94A9000C94A90078
:200040000C945D0B0C94A9000C94A9000C94A9000C94A9000C94A9000C94A9000C94A90099
:200060000C94A9000C94A900C8009600C8009600C8009600C8009600C800B80B00003C00AF
:2000800096003C00B80B000020455252004C494E206572726F72733A200077616974696E3C
:2000A000672E2E2E004C494E3A2025752C2025752C2025752C2025752C2025752C202575FA
:2000C0000A004552524F523A20726571756573746564206F7574206F662072616E676520A6
:2000E0006261756400010001020501040A01080F01101401201901401E0172031304B10533
:20010000230811241FBECFEFD8E0DEBFCDBF11E0A0E0B1E0EEE1F9E102C005900D92A4328C
:20012000B107D9F712E0A4E2B1E001C01D92A932B107E1F710E0C2E0D1E004C02297FE0194
:200140000E94520CCA3FD107C9F70E94400B0C948D0C0C940000AEE0B0E0E1EBF0E00C94DE
:20016000640C8C0177FF02C060E070E8615070407E836D831A8309838EE08C83CE01019654
:20018000BA01A9010E94D5002D813E8137FD09C0EF81F8852E173F070CF4F901E00FF11FA8
:2001A00010822E96E4E00C94800CABE0B0E0EBEDF0E00C94560C3C012B015A01FC011782DA
:2001C0001682838181FD03C06FEF7FEFC6C19AE0892E1E010894211C311CF3012381F201EE
:2001E00023FD859123FF81912F01882309F4B2C1853239F423FD859123FF81912F01853215
:2002000029F490E0B3010E94C802E7CF982FFF24EE249924FFE1FF15D0F09B3269F09C321A
:2002200028F4903259F0933291F40EC09D3249F0903369F441E024C052E0F52A84E0F82A7B
:2002400028C098E0F92A25C0E0E1FE2A22C0F7FC29C0892F80538A3070F4F6FE05C0989CF9
:20026000902C1124980E15C0E89CE02C1124E80EF0E2FF2A0EC09E3229F4F6FC6BC140E45F
:20028000F42A07C09C3619F450E8F52A02C0983649F4F20123FD959123FF91912F0199230D
:2002A00009F0B8CF892F8554833018F08052833038F444E050E0A40EB51E5FE359830FC0FB
:2002C000933631F0933779F0933509F056C020C0F5018081898342E050E0A40EB51E61010E
:2002E00001E010E012C0F501C080D180F6FC03C06FEF7FEF02C0692D70E042E050E0A40EA7
:20030000B51EC6010E94BD028C015FE7F52214C0F501C080D180F6FC03C06FEF7FEF02C05A
:20032000692D70E042E050E0A40EB51EC6010E94B2028C0150E8F52AF3FE07C01AC080E20B
:2003400090E0B3010E94C802EA948E2D90E008171907A8F30EC0F601F7FC8591F7FE8191B5
:200360006F0190E0B3010E94C802E110EA94015010400115110579F7EAC0943611F099368D
:2003800069F5F7FE08C0F501208131814281538184E090E00AC0F501808191819C014427B3
:2003A00037FD4095542F82E090E0A80EB91E9FE6F92257FF09C050954095309521953F4FD0
:2003C0004F4F5F4FE0E8FE2ACA01B901A1012AE030E00E94F402D82ED21840C0953729F42F
:2003E0001F2D1F7E2AE030E01DC01F2D197F9F3661F0903720F4983509F0ACC00FC0903770
:2004000039F0983709F0A6C004C028E030E00AC0106114FD146020E130E004C014FD16608D
:2004200020E132E017FF08C0F501608171818281938144E050E008C0F50180819181BC0109
:2004400080E090E042E050E0A40EB51EA1010E94F402D82ED2188FE7F82EF122F6FE0BC05D
:200460005EEFF522D91438F4F4FE07C0F2FC05C08FEEF82202C01D2D01C0192DF4FE0DC02A
:20048000FE01ED0DF11D8081803319F499EEF92208C01F5FF2FE05C003C08F2D867809F081
:2004A0001F5F0F2DF3FC14C0F0FE0FC01E1510F09D2C0BC09D2C9E0C911A1E2D06C080E2AA
:2004C00090E0B3010E94C8021F5F1E15C0F304C01E1510F4E11A01C0EE2404FF0FC080E32A
:2004E00090E0B3010E94C80202FF1DC001FD03C088E790E00EC088E590E00BC0802F8678CB
:2005000091F001FF02C08BE201C080E2F7FC8DE290E0B3010E94C80206C080E390E0B301C9
:200520000E94C8029A94D914C0F3DA94F101ED0DF11D808190E0B3010E94C802DD20A9F7EB
:2005400006C080E290E0B3010E94C802EA94EE20C1F743CEF30166817781CB012B96E2E16B
:200560000C94720CFC010590615070400110D8F7809590958E0F9F1F0895FC0161507040FA
:2005800001900110D8F7809590958E0F9F1F08950F931F93CF93DF938C01EB018B8181FF8B
:2005A0001BC082FF0DC02E813F818C819D812817390764F4E881F9810193F983E88306C07D
:2005C000E885F985802F0995892B31F48E819F8101969F838E8302C00FEF1FEFC801DF910A
:2005E000CF911F910F910895FA01AA27283051F1203181F1E8946F936E7F6E5F7F4F8F4FA1
:200600009F4FAF4FB1E03ED0B4E03CD0670F781F891F9A1FA11D680F791F8A1F911DA11D5F
:200620006A0F711D811D911DA11D20D009F468943F912AE0269F11243019305D3193DEF67E
:20064000CF010895462F4770405D4193B3E00FD0C9F7F6CF462F4F70405D4A3318F0495D9D
:2006600031FD4052419302D0A9F7EACFB4E0A6959795879577956795BA95C9F70097610590
:20068000710508959B01AC010A2E06945795479537952795BA95C9F7620F731F841F951F73
:2006A000A01D089583E384BD8CE085BD16BC8AE187BD8DE088BD10926E0015BA10922901AD
:2006C00084B58F7C84BD559A5D98089580932801882339F41092290184B58F7C84BD559AC0
:2006E0005D9808950E94370B609324017093250180932601909327010895CF93DF9380913C
:200700002901882309F470C080912B0190912A01282F30E0913041F4F901EE0FFF1FE8599B
:20072000FF4FC591D49107C0F901EE0FFF1FE258FF4FC591D4910E94370B20912401309116
:2007400025014091260150912701621B730B840B950B9E0140E050E062177307840795073F
:2007600008F45EC00E94370B6093240170932501809326019093270140912B014F5F409337
:200780002B0180912A01242F30E0813041F4F901EE0FFF1FE859FF4F8591949107C0F90108
:2007A000EE0FFF1FE258FF4F85919491892B19F040FF0CC013C080912801882369F01092E0
:2007C000280182E080932A0110922B0116BC84B5806384BD559A24C01092290184B58F7C70
:2007E00084BD559A5D981CC0809128018823C1F081E08093290180932A0110922B010E9416
:20080000370B6093240170932501809326019093270116BC84B5806384BD559A10922801E7
:20082000DF91CF91089585E290E090932E0180932D0183E290E09093300180932F0182E013
:2008400080933101219A29980E94370B60933201709333018093340190933501109236011C
:2008600081E080932C01E0912D01F0912E0190818091310180958923808308958F929F9281
:20088000AF92BF92CF92DF92EF92FF920F931F93DF93CF93CDB7DEB72B970FB6F894DEBFF1
:2008A0000FBECDBFEE24E39422E0922E93E0892E6E010894C11CD11C82E0A82EB12CAC0EC6
:2008C000BD1E0E94B80A0E949E0980912C01823019F1833009F44AC0813009F066C08091FB
:2008E0003601882309F461C090922C01E0912D01F0912E01808190913101892B80830E94AD
:20090000370B609332017093330180933401909335011092360149C00E94370B20913201ED
:20092000309133014091340150913501621B730B840B950B6531710581059105B0F18092A0
:200940002C01E0912D01F0912E019081809131018095892380830E94370B609332017093F6
:20096000330180933401909335011FC00E94370B20913201309133014091340150913501E9
:20098000621B730B840B950B6F3171058105910560F0E0922C01E0912D01F0912E019081AC
:2009A000809131018095892380830E94F605809137018823A1F487E391E00E944F0B892B7F
:2009C00071F00E94370B60934C0170934D0180934E0190934F0187E391E00E94590B0E94E9
:2009E000370B20914C0130914D0140914E0150914F01621B730B840B950B685873418040F9
:200A0000904070F08AE990E00E94390A0E94370B60934C0170934D0180934E0190934F0194
:200A200080913F018823A1F48FE391E00E944F0B892B71F00E94370B6093480170934901C4
:200A400080934A0190934B018FE391E00E94590B0E94D906182F882361F0E09236010E94D1
:200A6000370B60934C0170934D0180934E0190934F0180914701812B80934701882349F189
:200A80000E94370B209148013091490140914A0150914B01621B730B840B950B695E734080
:200AA00080409040B0F08DE890E00E94200A809147010E94F2080E940D0A0E94370B6093D0
:200AC00048017093490180934A0190934B01109247011982C6010E94A706882309F4F1CEB1
:200AE000C6010E943D09F82E00E010E00EC00115110519F080E20E948C09F501E00FF11DC2
:200B000080810E94C2090F5F1F4F898190E0081719076CF3FF2021F488E890E00E94200A93
:200B20000E940D0A0E94370B60934C0170934D0180934E0190934F01FF2019F4E0923601DD
:200B4000C0CEC6010E94E705BCCE0E9479090E94920680E09BE40E9482080E948C0678947F
:200B600008951F9385E290E0909352018093510183E290E0909354018093530111E010932C
:200B80005501209A28980E94370B6093560170935701809358019093590110925A01109373
:200BA0005001E0915101F09152019081809155018095892380830E94370B60935B017093DB
:200BC0005C0180935D0190935E011F910895FC0181E080935A018181893339F48081883008
:200BE00021F4828184700E94660308950E947D0380915001823021F1833009F44CC081308C
:200C000009F069C080915A01882309F464C082E080935001E0915101F091520180819091FB
:200C20005501892B80830E94370B6093560170935701809358019093590110925A014BC02D
:200C40000E94370B20915601309157014091580150915901621B730B840B950B65317105F4
:200C600081059105C0F183E080935001E0915101F09152019081809155018095892380830D
:200C80000E94370B6093560170935701809358019093590120C00E94370B20915601309155
:200CA00057014091580150915901621B730B840B950B6F3171058105910568F081E080934F
:200CC0005001E0915101F09152019081809155018095892380830E94370B20915B0130913E
:200CE0005C0140915D0150915E01621B730B840B950B685E73408040904068F081E0809329
:200D00005A010E94370B60935B0170935C0180935D0190935E0108950E94520381E08093EA
:200D20005A0108951092800083E0809381001092850010928400109289001092880010925E
:200D40008B0010928A0010926F0016BA0895582F692F9091C4018091C4019817E1F3F89474
:200D60004091C6018091C501481711F480E01FC0242F30E08BE090E0289FF001299FF00DA6
:200D8000389FF00D1124252F362FC901DC01E559FE4F8BE001900D928150E1F7842F8F5F7A
:200DA0008093C601883010F01092C60181E078940895F8948091C7011092C70178940895B6
:200DC0001F920F920FB60F9211242F933F934F935F936F937F938F939F93AF93BF93EF9340
:200DE000FF93439A8091C301813021F0823009F003C145C04A990AC1809166018F5F809352
:200E000066018A3008F404C1409A20918400309185001092B2004A9909C0809184009091E5
:200E20008500821B930B8F3F910598F3409882E08093C30110926701109268018091C50106
:200E400090E02BE030E0829FF001839FF00D929FF00D1124E559FE4F108220918400309160
:200E600085001092B2004A9BC2C08091840090918500821B930B8F3F910598F3B8C02C9A8F
:200E800089B184702C9820916801222381F4882331F080916701882359F194E02AC081E093
:200EA000809368011092690180936A01B1C0293090F4882339F08091690190916A01892B4F
:200EC0008093690180916A01880F80936A012F5F209368019DC0409167014F5F40936701DB
:200EE00010926801882361F4442311F098E001C090E12B9A8091C701982B9093C70182C047
:200F000050916901413061F4553501F12B9A8091C70180618093C7012B984093C30176C05A
:200F20008091C50190E02BE030E0829FF001839FF00D929FF00D1124E559FE4F8081DF014F
:200F4000A80FB11D11965C938F5F808380916501682F70E020918400309185001092B20058
:200F60004A9B0AC08091840090918500821B930B8617970798F363C08091C50190E02BE011
:200F800030E0829FF001839FF00D929FF00D1124E559FE4F80818A3028F529C02B9A80918B
:200FA000C70181602DC08091C5018F5F8093C501883010F01092C5019091C6018091C5011E
:200FC000981709F52B9A8091C70180628093C7012B98892F8F5F8093C6018830A0F01092DC
:200FE000C60111C02B9A8091C701826009C0809163018093B2000CC02B9A8091C701806488
:201000008093C7012B9881E08093C301109266018091C4018F5F8093C4014398FF91EF916A
:20102000BF91AF919F918F917F916F915F914F913F912F910F900FBE0F901F901895442392
:2010400009F0B1CFABCFEBE6F1E010823B9681E0E33CF807D1F70895CF92DF92EF92FF92D0
:201060000F931F93CF93DF936C01EB01CB01885E934089539A4430F082EC90E00E94390ACD
:20108000C0E8D5E2F601D183C08380E0FFE1C034DF0708F481E0F6018283882311F428E038
:2010A00001C020E430E040E050E060E074E284EF90E00E94350C7E0100E010E0CA01B901DB
:2010C000A80197010E94350CF601238326952E5F248360E970ED83E090E0A80197010E9404
:2010E000130CF601258330E0220F331F220F331F2683DF91CF911F910F91FF90EF90DF90D6
:20110000CF900895BC018FE591E00E942C0852985A9A389A4098249A2C98239A2B983B9AFC
:2011200043981092C5011092C60181E08093C30110926601539A83E38093B0008091610139
:20114000882311F482E001C084E088608093B1001092B2008091620181508093B30081507C
:201160008093B40082E08093700087BB1092C7010E94BA098DB79EB70E970FB6F8949EBFC6
:201180000FBE8DBFEDB7FEB7319685EA90E0ADB7BEB712969C938E93119780915F0190912C
:2011A000600193838283809161018483158280916201868317828091630180871186809168
:2011C00064018287138680916501848715860E94790A8DB79EB70E960FB6F8949EBF0FBE0E
:2011E0008DBF08950F931F93CF93DF9320E0C0E0D0E0082F10E0FE01EE0FFF1FEC0FFD1F36
:20120000EB51FF4FE4918E2F90E080239123892B89F0222319F080E20E948C09FE01EE0F3B
:20122000FF1FEC0FFD1FEA51FF4F859194910E94610A21E02196C730D105E9F6DF91CF9174
:201240001F910F910895482F282F220F220F622F6095822F880F982F990F392F330F532F08
:20126000550F86278927922793278527807895279074892B4F73842B08950F931F93CF935E
:20128000DF93EC010881013021F0802F8350883048F51981812F0E942309181719F5023026
:2012A00010F491E020C0FE01E00FF11DE081DE01119620E030E003C08D91280F311D01502F
:2012C000D9F7332339F0832F90E0AC01420F511D9A01F7CF90E0822F8095E81391E081E0CD
:2012E000982701C090E0892FDF91CF911F910F9108951092C9011092C8011092C50080E1EA
:201300008093C40082E08093C00088E08093C10086E08093C20008959091C801903568F4A2
:20132000E091C901E90FE03508F0E055F0E0E653FE4F80839F5F9093C80108959091C8016E
:201340009923B9F08091C00085FF13C08091C901E82FF0E0E653FE4FE0818F5F8093C9018C
:20136000803510F01092C90191509093C801E093C600089502C00E949E098091C801882319
:20138000D1F70895282F22952F709091C8012A3068F49035D8F4E091C901E90FE03508F0CA
:2013A000E055F0E0E653FE4F205D0CC0903570F4E091C901E90FE03508F0E055F0E0E653B2
:2013C000FE4F295A20839F5F9093C8018F709091C8018A3088F49035F8F4E091C901E90FAD
:2013E000E03508F0E055F0E0E653FE4F805D80839F5F9093C8010895903570F4E091C9018A
:20140000E90FE03508F0E055F0E0E653FE4F895A80839F5F9093C80108959091C801903520
:2014200070F4E091C901E90FE03508F0E055F0E0E653FE4F8AE080839F5F9093C801089589
:201440004091C9012091C801FC0101963491332369F02035C8F7E22FE40FE03508F0E05515
:20146000F0E0E653FE4F30832F5FEECF2093C80108954091C9012091C801FC010196349191
:20148000332369F02035C8F7E22FE40FE03508F0E055F0E0E653FE4F30832F5FEECF20933C
:2014A000C801203568F4E42FE20FE03508F0E055F0E0E653FE4F8AE080832F5F2093C8019F
:2014C0000895DC012091C9018091C8019D91992369F08035D8F7E82FE20FE03508F0E0552C
:2014E000F0E0E653FE4F90838F5FF0CF8093C80108950F931F93DF93CF93CDB7DEB7C05507
:20150000D0400FB6F894DEBF0FBECDBFFE01E95AFF4F419151918E010F5F1F4FC80160E5B7
:2015200070E09F010E94AB002091C9018091C801D8010DC0803550F4E82FE20FE03508F065
:20154000E055F0E0E653FE4F90838F5F11969C91992381F78093C801C05BDF4F0FB6F89481
:20156000DEBF0FBECDBFCF91DF911F910F9108954F925F926F927F928F929F92AF92BF92F0
:20158000CF92DF92EF92FF920F931F93F8942091840030918500789440901E0250901F020F
:2015A0002419350960901A0270901B0280901C0290901D02C90164EC79E00E94FF0B5B019F
:2015C0008CE396EFAC01649FC001659F900D749F900D1124820F931F6AEF70E00E94FF0B88
:2015E0006B017B0100E010E0B50180E090E02AE030E040E050E00E94E00B660E771E881E07
:20160000991EE60CF71C081D191DE0921A02F0921B0200931C0210931D028AEF90E0C89EC4
:201620009001C99E300DD89E300D112484EC99E0AC01A49EC001A59E900DB49E900D1124F0
:20164000840D951D280F391F30931F0220931E021F910F91FF90EF90DF90CF90BF90AF9047
:201660009F908F907F906F905F904F90089560911A0270911B0280911C0290911D0208956C
:20168000CF93DF930E94A50B0E94A505C0E0D0E00E943E042097E1F30E940000F9CFFC01B2
:2016A00020E030E08081882311F421E030E0C9010895FC0181E0808308951F920F920FB6DC
:2016C0000F9211242F933F938F939F93AF93BF938091240290912502A0912602B091270276
:2016E000309128020196A11DB11D232F2D5F2D3720F02D570196A11DB11D209328028093F3
:20170000240290932502A0932602B09327028091200290912102A0912202B09123020196C9
:20172000A11DB11D8093200290932102A0932202B0932302BF91AF919F918F913F912F9173
:201740000F900FBE0F901F901895789484B5826084BD84B5816084BD85B5826085BD85B5C7
:20176000816085BDEEE6F0E0808181608083E1E8F0E01082808182608083808181608083C7
:20178000E0E8F0E0808181608083E1EBF0E0808184608083E0EBF0E0808181608083EAE7F7
:2017A000F0E08081846080838081826080838081816080838081806880831092C1000895BA
:2017C000629FD001739FF001829FE00DF11D649FE00DF11D929FF00D839FF00D749FF00DBD
:2017E000659FF00D9927729FB00DE11DF91F639FB00DE11DF91FBD01CF0111240895AA1B4A
:20180000BB1B51E107C0AA1FBB1FA617B70710F0A61BB70B881F991F5A95A9F78095909530
:20182000BC01CD010895A1E21A2EAA1BBB1BFD010DC0AA1FBB1FEE1FFF1FA217B307E40723
:20184000F50720F0A21BB30BE40BF50B661F771F881F991F1A9469F7609570958095909556
:201860009B01AC01BD01CF01089597FB092E05260ED057FD04D0D7DF0AD0001C38F450953D
:201880004095309521953F4F4F4F5F4F0895F6F790958095709561957F4F8F4F9F4F089528
:2018A000EE0FFF1F0590F491E02D09942F923F924F925F926F927F928F929F92AF92BF92EF
:2018C000CF92DF92EF92FF920F931F93CF93DF93CDB7DEB7CA1BDB0B0FB6F894DEBF0FBE5D
:2018E000CDBF09942A88398848885F846E847D848C849B84AA84B984C884DF80EE80FD8076
:201900000C811B81AA81B981CE0FD11D0FB6F894DEBF0FBECDBFED010895F894FFCF5348A7
:201920005254004C4F4E4700535452540053544F500053594E43004F56524E004F5448527F
:201940000000FFFFFFFFFFFFFFFFFFFFFFFFFFFFFFFFFFFFFFFFFFFFFFFFFFFFFFFFFFFFA5
:20196000FFFFFFFFFFFFFFFFFFFFFFFFFFFFFFFFFFFFFFFFFFFFFFFFFFFFFFFFFFFFFFFF87
:20198000FFFFFFFFFFFFFFFFFFFFFFFFFFFFFFFFFFFFFFFFFFFFFFFFFFFFFFFFFFFFFFFF67
:2019A000FFFFFFFFFFFFFFFFFFFFFFFFFFFFFFFFFFFFFFFFFFFFFFFFFFFFFFFFFFFFFFFF47
:2019C000FFFFFFFFFFFFFFFFFFFFFFFFFFFFFFFFFFFFFFFFFFFFFFFFFFFFFFFFFFFFFFFF27
:207800000C94343C0C94513C0C94513C0C94513C0C94513C0C94513C0C94513C0C94513C1D
:207820000C94513C0C94513C0C94513C0C94513C0C94513C0C94513C0C94513C0C94513CE0
:207840000C94513C0C94513C0C94513C0C94513C0C94513C0C94513C0C94513C0C94513CC0
:207860000C94513C0C94513C11241FBECFEFD8E0DEBFCDBF11E0A0E0B1E0ECE9FFE702C07E
:2078800005900D92A230B107D9F712E0A2E0B1E001C01D92AD30B107E1F70E942D3D0C94CC
:2078A000CC3F0C94003C982F9595959595959595905D8F708A307CF0282F295A8091C000B5
:2078C00085FFFCCF9093C6008091C00085FFFCCF2093C6000895282F205DF0CF982F8091CF
:2078E000C00085FFFCCF9093C6000895EF92FF920F931F93EE24FF2487018091C00087FD7B
:2079000017C00894E11CF11C011D111D81E4E81682E4F8068FE0080780E0180770F3E09106
:207920000401F091050109958091C00087FFE9CF8091C6001F910F91FF90EF9008950E949A
:20794000763C982F8091C00085FFFCCF9093C60091362CF490330CF09053892F08959755DB
:20796000892F08951F930E949F3C182F0E949F3C1295107F810F1F9108951F93182F882308
:2079800021F00E94763C1150E1F71F9108951F93182F0E94763C803249F0809103018F5FC1
:2079A000809303018530C1F01F9108958091C00085FFFCCF84E18093C6008091C00085FF4A
:2079C000FCCF1093C6008091C00085FFFCCF80E18093C6001F910895E0910401F0910501CF
:2079E00009951F9108950E94763C803241F0809103018F5F80930301853081F00895809177
:207A0000C00085FFFCCF84E18093C6008091C00085FFFCCF80E18093C6000895E0910401AC
:207A2000F09105010995089540E951E08823A1F02D9A28EE33E0FA013197F1F72150304072
:207A4000D1F72D9828EE33E0FA013197F1F721503040D1F7815061F708953F924F925F92B3
:207A60006F927F928F929F92AF92BF92CF92DF92EF92FF920F931F93CF93DF93000080E1A3
:207A80008093C4001092C50088E18093C10086E08093C2005098589A259A81E00E94143D43
:207AA00024E1F22E9EE1E92E85E9D82E0FE0C02E10E1B12EAA24A394B1E49B2EA6E58A2E44
:207AC000F2E57F2EE0E26E2E79E4572E63E5462E50E5352E0E94763C8033B1F18133B9F187
:207AE000803409F46FC0813409F476C0823409F485C0853409F488C0803531F1823521F128
:207B0000813511F1853509F485C0863509F48DC0843609F496C0843709F403C1853709F46A
:207B200072C1863709F466C0809103018F5F80930301853079F6E0910401F0910501099559
:207B40000E94763C803351F60E94F33CC3CF0E94763C803249F78091C00085FFFCCFF0928C
:207B6000C6008091C00085FFFCCF9092C6008091C00085FFFCCF8092C6008091C00085FFEA
:207B8000FCCF7092C6008091C00085FFFCCF6092C6008091C00085FFFCCF5092C6008091A1
:207BA000C00085FFFCCF4092C6008091C00085FFFCCF3092C6008091C00085FFFCCFB09214
:207BC000C60088CF0E94763C863808F4BDCF0E94763C0E94F33C7ECF0E94763C803809F473
:207BE0009CC0813809F40BC1823809F43CC1883909F48FC080E00E94C73C6CCF84E10E949F
:207C0000BD3C0E94F33C66CF85E00E94BD3C0E94F33C60CF0E94763C809306010E94763CA3
:207C2000809307010E94F33C55CF0E94763C803309F41DC183E00E94BD3C80E00E94C73C4F
:207C400049CF0E94763C809309020E94763C8093080280910C028E7F80930C020E94763C88
:207C6000853409F415C18091080290910902892B89F000E010E00E94763CF801E85FFE4F53
:207C800080830F5F1F4F80910802909109020817190788F30E94763C803209F045CF8091E0
:207CA0000C0280FF01C16091060170910701660F771F7093070160930601A0910802B091E8
:207CC00009021097C9F0E8E0F1E09B01AD014E0F5F1FF999FECF32BD21BD819180BDFA9A6C
:207CE000F99A2F5F3F4FE417F50799F76A0F7B1F70930701609306018091C00085FFFCCF16
:207D0000F092C6008091C00085FFFCCFB092C600E1CE83E00E94C73CDDCE82E00E94C73C8A
:207D2000D9CE0E94763C809309020E94763C809308028091060190910701880F991F909306
:207D40000701809306010E94763C853409F4A6C080910C028E7F80930C020E94763C80323E
:207D600009F0B8CE8091C00085FFFCCFF092C600609108027091090261157105B9F140E05F
:207D800050E080910C02A82FA170B82FB27011C0BB2309F45CC0E0910601F0910701319613
:207DA000F0930701E09306014F5F5F4F46175707E8F4AA2369F3F999FECF209106013091CA
:207DC000070132BD21BDF89A90B58091C00085FFFCCF9093C6002F5F3F4F30930701209354
:207DE00006014F5F5F4F4617570718F38091C00085FDE5CE8091C00085FFF8CFE0CE81E029
:207E00000E94C73C67CE0E94763C803209F08CCE8091C00085FFFCCFF092C6008091C000F6
:207E200085FFFCCFE092C6008091C00085FFFCCFD092C6008091C00085FFFCCFC092C6003B
:207E40008091C00085FFFCCFB092C60043CEE0910601F091070194918091C00085FFFCCFA3
:207E60009093C6009CCF80E10E94C73C33CE0E94763C0E94763C182F0E94763C112309F433
:207E800083C0113009F484C08FE00E94C73C22CE80910C02816080930C02E5CE80910C0226
:207EA000816080930C0259CF809107018823880F880B8A2180930B0280910601909107019E
:207EC000880F991F90930701809306018091080280FF09C0809108029091090201969093AA
:207EE000090280930802F894F999FECF1127E0910601F0910701C8E0D1E0809108029091A1
:207F00000902103091F40091570001700130D9F303E000935700E895009157000170013067
:207F2000D9F301E100935700E895099019900091570001700130D9F301E000935700E8954C
:207F40001395103498F011270091570001700130D9F305E000935700E8950091570001707A
:207F60000130D9F301E100935700E8953296029709F0C7CF103011F00296E5CF11248091F8
:1E7F8000C00085FFB9CEBCCE8EE10E94C73CA2CD85E90E94C73C9ECDF894FFCF8000B3
:00000001FF
