:200000000C9476000C949E000C949E000C949E000C949E000C949E000C949E000C94EC05C5
:200020000C949E000C949E000C949E000C949E000C949E000C949E000C949E000C949E00D0
:200040000C94710A0C949E000C949E000C949E000C949E000C949E000C949E000C949E00D3
:200060000C949E000C949E0032009600320096003200B80B20455252004C494E206572722A
:200080006F72733A200077616974696E672E2E2E004C494E3A2025752C2025752C20257592
:2000A0002C2025752C2025752C2025750A004552524F523A20726571756573746564206F3F
:2000C0007574206F662072616E6765206261756400010001020501040A01080F0110140103
:2000E000201901401E015F031504290711241FBECFEFD8E0DEBFCDBF11E0A0E0B1E0E6E43F
:20010000F7E102C005900D92A432B107D9F712E0A4E2B1E001C01D92AF32B107E1F710E0D9
:20012000CCEED0E004C02297FE010E94660BC63ED107C9F70E94540A0C94A10B0C9400003E
:20014000AEE0B0E0E6EAF0E00C94780B8C0177FF02C060E070E8615070407E836D831A8372
:2001600009838EE08C83CE010196BA01A9010E94CA002D813E8137FD09C0EF81F8852E17A3
:200180003F070CF4F901E00FF11F10822E96E4E00C94940BABE0B0E0E0EDF0E00C946A0BFA
:2001A0003C012B015A01FC0117821682838181FD03C06FEF7FEFC6C19AE0892E1E010894C9
:2001C000211C311CF3012381F20123FD859123FF81912F01882309F4B2C1853239F423FD51
:2001E000859123FF81912F01853229F490E0B3010E94BD02E7CF982FFF24EE249924FFE1DD
:20020000FF15D0F09B3269F09C3228F4903259F0933291F40EC09D3249F0903369F441E08E
:2002200024C052E0F52A84E0F82A28C098E0F92A25C0E0E1FE2A22C0F7FC29C0892F805369
:200240008A3070F4F6FE05C0989C902C1124980E15C0E89CE02C1124E80EF0E2FF2A0EC0A3
:200260009E3229F4F6FC6BC140E4F42A07C09C3619F450E8F52A02C0983649F4F20123FD54
:20028000959123FF91912F01992309F0B8CF892F8554833018F08052833038F444E050E037
:2002A000A40EB51E5FE359830FC0933631F0933779F0933509F056C020C0F50180818983F5
:2002C00042E050E0A40EB51E610101E010E012C0F501C080D180F6FC03C06FEF7FEF02C078
:2002E000692D70E042E050E0A40EB51EC6010E94B2028C015FE7F52214C0F501C080D180DF
:20030000F6FC03C06FEF7FEF02C0692D70E042E050E0A40EB51EC6010E94A7028C0150E806
:20032000F52AF3FE07C01AC080E290E0B3010E94BD02EA948E2D90E008171907A8F30EC0D4
:20034000F601F7FC8591F7FE81916F0190E0B3010E94BD02E110EA94015010400115110565
:2003600079F7EAC0943611F0993669F5F7FE08C0F501208131814281538184E090E00AC030
:20038000F501808191819C01442737FD4095542F82E090E0A80EB91E9FE6F92257FF09C0A2
:2003A00050954095309521953F4F4F4F5F4FE0E8FE2ACA01B901A1012AE030E00E94E90270
:2003C000D82ED21840C0953729F41F2D1F7E2AE030E01DC01F2D197F9F3661F0903720F47F
:2003E000983509F0ACC00FC0903739F0983709F0A6C004C028E030E00AC0106114FD146042
:2004000020E130E004C014FD166020E132E017FF08C0F501608171818281938144E050E05B
:2004200008C0F50180819181BC0180E090E042E050E0A40EB51EA1010E94E902D82ED21868
:200440008FE7F82EF122F6FE0BC05EEFF522D91438F4F4FE07C0F2FC05C08FEEF82202C0EC
:200460001D2D01C0192DF4FE0DC0FE01ED0DF11D8081803319F499EEF92208C01F5FF2FECC
:2004800005C003C08F2D867809F01F5F0F2DF3FC14C0F0FE0FC01E1510F09D2C0BC09D2C57
:2004A0009E0C911A1E2D06C080E290E0B3010E94BD021F5F1E15C0F304C01E1510F4E11A95
:2004C00001C0EE2404FF0FC080E390E0B3010E94BD0202FF1DC001FD03C088E790E00EC043
:2004E00088E590E00BC0802F867891F001FF02C08BE201C080E2F7FC8DE290E0B3010E94AC
:20050000BD0206C080E390E0B3010E94BD029A94D914C0F3DA94F101ED0DF11D808190E0C7
:20052000B3010E94BD02DD20A9F706C080E290E0B3010E94BD02EA94EE20C1F743CEF30113
:2005400066817781CB012B96E2E10C94860BFC010590615070400110D8F7809590958E0F91
:200560009F1F0895FC016150704001900110D8F7809590958E0F9F1F08950F931F93CF9369
:20058000DF938C01EB018B8181FF1BC082FF0DC02E813F818C819D812817390764F4E881E1
:2005A000F9810193F983E88306C0E885F985802F0995892B31F48E819F8101969F838E8376
:2005C00002C00FEF1FEFC801DF91CF911F910F910895FA01AA27283051F1203181F1E89422
:2005E0006F936E7F6E5F7F4F8F4F9F4FAF4FB1E03ED0B4E03CD0670F781F891F9A1FA11D3C
:20060000680F791F8A1F911DA11D6A0F711D811D911DA11D20D009F468943F912AE0269F1D
:2006200011243019305D3193DEF6CF010895462F4770405D4193B3E00FD0C9F7F6CF462FA1
:200640004F70405D4A3318F0495D31FD4052419302D0A9F7EACFB4E0A69597958795779531
:200660006795BA95C9F700976105710508959B01AC010A2E06945795479537952795BA95A5
:20068000C9F7620F731F841F951FA01D089583E384BD8CE085BD16BC8AE187BD8DE088BD5E
:2006A00010926E0015BA81E08093290184B58F7C84BD559A5D9808958093280108950E943C
:2006C0004B0A609324017093250180932601909327010895EF92FF920F931F9380912901C1
:2006E000813021F0823009F05EC01CC080912801882309F458C082E08093290110922A012D
:200700000E944B0A6093240170932501809326019093270116BC84B5806384BD559A10925C
:20072000280141C080912A01E82FF0E0EE0FFF1FE859FF4FE590F4900E944B0A20912401FC
:20074000309125014091260150912701621B730B840B950B00E010E0E616F706080719078F
:2007600010F50E944B0A6093240170932501809326019093270180912A018F5F80932A014F
:20078000863020F081E08093290102C080FF06C084B58F7C84BD559A5D9805C016BC84B5B5
:2007A000806384BD559A1F910F91FF90EF9008950F931F938C01FB01DC0112967C936E93B9
:2007C000119732971496FC93EE931397329681E090E002C0880F991F4A95E2F715968C9318
:2007E00015972291282B20831196ED91FC911297908115968C918095892380830E944B0AB5
:20080000F8016683778380879187128681E080830180F281E02D9081D80115968C91809519
:20082000892380831F910F9108958BE291E065E270E041E00E94D80386E391E065E270E098
:2008400040E00E94D80381E491E06BE270E047E00E94D8030895CF93DF93EC0188818230CB
:20086000C9F08330B1F1813009F04BC08A85882309F447C082E08883E981FA8180819D8186
:20088000892B80830E944B0A6E837F83888799871A8637C00E944B0A2E813F8148855985E0
:2008A000621B730B840B950B653171058105910540F183E08883E981FA8190818D8180952E
:2008C000892380830E944B0A6E837F838887998718C00E944B0A2E813F8148855985621BEA
:2008E000730B840B950B6F3171058105910548F081E08883E981FA8190818D8180958923B0
:200900008083DF91CF910895AF92BF92CF92DF92EF92FF920F931F93DF93CF93CDB7DEB7B0
:200920002B970FB6F894DEBF0FBECDBFEE24E3946E010894C11CD11C82E0A82EB12CAC0E81
:20094000BD1E0E94CC090E94B2080E946A0381E491E00E942B0486E391E00E942B048BE21B
:2009600091E00E942B0480914C018823A1F48CE491E00E94630A892B71F00E944B0A6093A8
:2009800061017093620180936301909364018CE491E00E946D0A0E944B0A209161013091CB
:2009A00062014091630150916401621B730B840B950B685B7B408040904080F0E0924B01F3
:2009C00086E890E00E944D090E944B0A60936101709362018093630190936401809154012A
:2009E0008823A1F484E591E00E94630A892B71F00E944B0A60935D0170935E0180935F019C
:200A00009093600184E591E00E946D0A0E94E505182F882361F0E09235010E944B0A6093FE
:200A2000610170936201809363019093640180915C01812B80935C01882349F10E944B0A89
:200A400020915D0130915E0140915F0150916001621B730B840B950B695E734080409040C0
:200A6000B0F089E790E00E94340980915C010E94F8070E9421090E944B0A60935D017093F1
:200A80005E0180935F019093600110925C011982C6010E94B305882309F453CFC60161E073
:200AA0000E944308F82E882319F0E092400102C0E092350100E010E00EC00115110519F07F
:200AC00080E20E94A008F501E00FF11D80810E94D6080F5F1F4F898190E0081719076CF302
:200AE000FF2021F484E790E00E9434090E9421090E944B0A60936101709362018093630113
:200B000090936401FF2009F41CCF99818A81893309F017CF983009F014CF8B8184700E9440
:200B20005C030FCF0E948D080E9447030E949E0580E09BE40E948807789408951092800035
:200B400083E0809381001092850010928400109289001092880010928B0010928A00109201
:200B60006F0016BA0895582F692F9091CA018091CA019817E1F3F8944091CC018091CB0128
:200B8000481711F480E01FC0242F30E08BE090E0289FF001299FF00D389FF00D1124252F9A
:200BA000362FC901DC01EF58FE4F8BE001900D928150E1F7842F8F5F8093CC01883010F018
:200BC0001092CC0181E078940895F8948091CD011092CD01789408951F920F920FB60F9260
:200BE00011242F933F934F935F936F938F939F93AF93BF93EF93FF93439A8091C9018130F1
:200C000021F0823009F0FFC045C04A9906C180916C018F5F80936C018A3008F400C1409A6D
:200C200020918400309185001092B2004A9909C08091840090918500821B930B8F3F91055F
:200C400098F3409882E08093C90110926D0110926E018091CB0190E02BE030E0829FF00157
:200C6000839FF00D929FF00D1124EF58FE4F108220918400309185001092B2004A9BBEC09A
:200C80008091840090918500821B930B8F3F910598F3B4C02C9A89B184702C9820916E01A3
:200CA000222381F4882331F080916D01882331F194E025C081E080936E0110926F01809301
:200CC0007001ADC0293090F4882339F080916F0190917001892B80936F0180917001880F22
:200CE000809370012F5F20936E0199C040916D01882361F4442311F098E001C090E12B9A51
:200D00008091CD01982B9093CD0183C050916F01442339F45535D9F02B9A8091CD01806140
:200D200076C08091CB0190E02BE030E0829FF001839FF00D929FF00D1124EF58FE4F8081EC
:200D4000DF01A80FB11D11965C938F5F8083642F6F5F60936D0110926E0180916B01482FE0
:200D600050E020918400309185001092B2004A9B0AC08091840090918500821B930B8417B4
:200D8000950798F362C08091CB0190E02BE030E0829FF001839FF00D929FF00D1124EF58C7
:200DA000FE4F80818A3028F529C02B9A8091CD0181602DC08091CB018F5F8093CB01883051
:200DC00010F01092CB019091CC018091CB01981709F52B9A8091CD0180628093CD012B9803
:200DE000892F8F5F8093CC018830A0F01092CC0111C02B9A8091CD01826009C0809169011B
:200E00008093B2000CC02B9A8091CD0180648093CD012B9881E08093C90110926C018091B7
:200E2000CA018F5F8093CA014398FF91EF91BF91AF919F918F916F915F914F913F912F91F0
:200E40000F900FBE0F901F901895662309F0B2CFACCFE1E7F1E010823B9681E0E93CF8072C
:200E6000D1F70895CF92DF92EF92FF920F931F93CF93DF936C01EB01CB01885E9340895347
:200E80009A4430F08EEA90E00E944D09C0E8D5E2F601D183C08380E0FFE1C034DF0708F471
:200EA00081E0F6018283882311F428E001C020E430E040E050E060E074E284EF90E00E94DD
:200EC000490B7E0100E010E0CA01B901A80197010E94490BF601238326952E5F248360E9DE
:200EE00070ED83E090E0A80197010E94270BF601258330E0220F331F220F331F2683DF91DF
:200F0000CF911F910F91FF90EF90DF90CF900895BC0185E691E00E94320752985A9A389A84
:200F20004098249A2C98239A2B983B9A43981092CB011092CC0181E08093C90110926C01FD
:200F4000539A83E38093B00080916701882311F482E001C084E088608093B1001092B200CB
:200F60008091680181508093B30081508093B40082E08093700087BB1092CD010E94CE08B9
:200F80008DB79EB70E970FB6F8949EBF0FBE8DBFEDB7FEB7319681E990E0ADB7BEB71296D1
:200FA0009C938E931197809165019091660193838283809167018483158280916801868385
:200FC0001782809169018087118680916A018287138680916B01848715860E948D098DB7A2
:200FE0009EB70E960FB6F8949EBF0FBE8DBF08950F931F93CF93DF9320E0C0E0D0E0082FE5
:2010000010E0FE01EE0FFF1FEC0FFD1FEF52FF4FE4918E2F90E080239123892B89F02223B5
:2010200019F080E20E94A008FE01EE0FFF1FEC0FFD1FEE52FF4F859194910E94750921E0E0
:201040002196C730D105E9F6DF91CF911F910F910895482F282F220F220F622F6095822F09
:20106000880F982F990F392F330F532F550F86278927922793278527807895279074892BF2
:201080004F73842B0895FF920F931F93CF93DF93EC01F62E0881013021F0802F8350883073
:2010A000A0F51981812F0E942908181771F5023010F491E02BC0FE01E00FF11DE08180E09A
:2010C000FF2009F481E0A82FB0E01196AC0FBD1F982F9095900F20E030E004C08D91280F3A
:2010E000311D91509923D1F7332339F0832F90E0AC01420F511D9A01F7CF90E0822F809599
:20110000E81391E081E0982701C090E0892FDF91CF911F910F91FF9008951092CF011092FA
:20112000CE011092C50080E18093C40082E08093C00088E08093C10086E08093C2000895F8
:201140009091CE01903568F4E091CF01E90FE03508F0E055F0E0E053FE4F80839F5F90938F
:20116000CE0108959091CE019923B9F08091C00085FF13C08091CF01E82FF0E0E053FE4F3E
:20118000E0818F5F8093CF01803510F01092CF0191509093CE01E093C600089502C00E94E9
:2011A000B2088091CE018823D1F70895282F22952F709091CE012A3068F49035D8F4E09130
:2011C000CF01E90FE03508F0E055F0E0E053FE4F205D0CC0903570F4E091CF01E90FE035F5
:2011E00008F0E055F0E0E053FE4F295A20839F5F9093CE018F709091CE018A3088F4903572
:20120000F8F4E091CF01E90FE03508F0E055F0E0E053FE4F805D80839F5F9093CE010895AA
:20122000903570F4E091CF01E90FE03508F0E055F0E0E053FE4F895A80839F5F9093CE01E4
:2012400008959091CE01903570F4E091CF01E90FE03508F0E055F0E0E053FE4F8AE08083A0
:201260009F5F9093CE0108954091CF012091CE01FC0101963491332369F02035C8F7E22F93
:20128000E40FE03508F0E055F0E0E053FE4F30832F5FEECF2093CE0108954091CF0120915A
:2012A000CE01FC0101963491332369F02035C8F7E22FE40FE03508F0E055F0E0E053FE4FAD
:2012C00030832F5FEECF2093CE01203568F4E42FE20FE03508F0E055F0E0E053FE4F8AE0DD
:2012E00080832F5F2093CE010895DC012091CF018091CE019D91992369F08035D8F7E82F22
:20130000E20FE03508F0E055F0E0E053FE4F90838F5FF0CF8093CE0108950F931F93DF9345
:20132000CF93CDB7DEB7C055D0400FB6F894DEBF0FBECDBFFE01E95AFF4F419151918E01F3
:201340000F5F1F4FC80160E570E09F010E94A0002091CF018091CE01D8010DC0803550F471
:20136000E82FE20FE03508F0E055F0E0E053FE4F90838F5F11969C91992381F78093CE01E8
:20138000C05BDF4F0FB6F894DEBF0FBECDBFCF91DF911F910F9108954F925F926F927F921C
:2013A0008F929F92AF92BF92CF92DF92EF92FF920F931F93F89420918400309185007894FE
:2013C00040902402509025022419350960902002709021028090220290902302C90164ECCD
:2013E00079E00E94130B5B018CE396EFAC01649FC001659F900D749F900D1124820F931F4A
:201400006AEF70E00E94130B6B017B0100E010E0B50180E090E02AE030E040E050E00E9419
:20142000F40A660E771E881E991EE60CF71C081D191DE0922002F092210200932202109355
:2014400023028AEF90E0C89E9001C99E300DD89E300D112484EC99E0AC01A49EC001A59E1F
:20146000900DB49E900D1124840D951D280F391F30932502209324021F910F91FF90EF90B8
:20148000DF90CF90BF90AF909F908F907F906F905F904F90089560912002709121028091E1
:2014A0002202909123020895CF93DF930E94B90A0E949205C0E0D0E00E9484042097E1F3AE
:2014C0000E940000F9CFFC0120E030E08081882311F421E030E0C9010895FC0181E080830B
:2014E00008951F920F920FB60F9211242F933F938F939F93AF93BF9380912A0290912B025B
:20150000A0912C02B0912D0230912E020196A11DB11D232F2D5F2D3720F02D570196A11DBD
:20152000B11D20932E0280932A0290932B02A0932C02B0932D028091260290912702A091E4
:201540002802B09129020196A11DB11D8093260290932702A0932802B0932902BF91AF91F0
:201560009F918F913F912F910F900FBE0F901F901895789484B5826084BD84B5816084BD61
:2015800085B5826085BD85B5816085BDEEE6F0E0808181608083E1E8F0E0108280818260F9
:2015A0008083808181608083E0E8F0E0808181608083E1EBF0E0808184608083E0EBF0E0A7
:2015C000808181608083EAE7F0E080818460808380818260808380818160808380818068E9
:2015E00080831092C1000895629FD001739FF001829FE00DF11D649FE00DF11D929FF00DCB
:20160000839FF00D749FF00D659FF00D9927729FB00DE11DF91F639FB00DE11DF91FBD0163
:20162000CF0111240895AA1BBB1B51E107C0AA1FBB1FA617B70710F0A61BB70B881F991F74
:201640005A95A9F780959095BC01CD010895A1E21A2EAA1BBB1BFD010DC0AA1FBB1FEE1FB8
:20166000FF1FA217B307E407F50720F0A21BB30BE40BF50B661F771F881F991F1A9469F7F0
:2016800060957095809590959B01AC01BD01CF01089597FB092E05260ED057FD04D0D7DFF2
:2016A0000AD0001C38F450954095309521953F4F4F4F5F4F0895F6F790958095709561953A
:2016C0007F4F8F4F9F4F0895EE0FFF1F0590F491E02D09942F923F924F925F926F927F927E
:2016E0008F929F92AF92BF92CF92DF92EF92FF920F931F93CF93DF93CDB7DEB7CA1BDB0B16
:201700000FB6F894DEBF0FBECDBF09942A88398848885F846E847D848C849B84AA84B98432
:20172000C884DF80EE80FD800C811B81AA81B981CE0FD11D0FB6F894DEBF0FBECDBFED0185
:201740000895F894FFCF53485254004C4F4E4700535452540053544F500053594E43004F02
:2017600056524E004F5448520000FFFFFFFFFFFFFFFFFFFFFFFFFFFFFFFFFFFFFFFFFFFF4C
:20178000FFFFFFFFFFFFFFFFFFFFFFFFFFFFFFFFFFFFFFFFFFFFFFFFFFFFFFFFFFFFFFFF69
:2017A000FFFFFFFFFFFFFFFFFFFFFFFFFFFFFFFFFFFFFFFFFFFFFFFFFFFFFFFFFFFFFFFF49
:2017C000FFFFFFFFFFFFFFFFFFFFFFFFFFFFFFFFFFFFFFFFFFFFFFFFFFFFFFFFFFFFFFFF29
:2017E000FFFFFFFFFFFFFFFFFFFFFFFFFFFFFFFFFFFFFFFFFFFFFFFFFFFFFFFFFFFFFFFF09
:207800000C94343C0C94513C0C94513C0C94513C0C94513C0C94513C0C94513C0C94513C1D
:207820000C94513C0C94513C0C94513C0C94513C0C94513C0C94513C0C94513C0C94513CE0
:207840000C94513C0C94513C0C94513C0C94513C0C94513C0C94513C0C94513C0C94513CC0
:207860000C94513C0C94513C11241FBECFEFD8E0DEBFCDBF11E0A0E0B1E0ECE9FFE702C07E
:2078800005900D92A230B107D9F712E0A2E0B1E001C01D92AD30B107E1F70E942D3D0C94CC
:2078A000CC3F0C94003C982F9595959595959595905D8F708A307CF0282F295A8091C000B5
:2078C00085FFFCCF9093C6008091C00085FFFCCF2093C6000895282F205DF0CF982F8091CF
:2078E000C00085FFFCCF9093C6000895EF92FF920F931F93EE24FF2487018091C00087FD7B
:2079000017C00894E11CF11C011D111D81E4E81682E4F8068FE0080780E0180770F3E09106
:207920000401F091050109958091C00087FFE9CF8091C6001F910F91FF90EF9008950E949A
:20794000763C982F8091C00085FFFCCF9093C60091362CF490330CF09053892F08959755DB
:20796000892F08951F930E949F3C182F0E949F3C1295107F810F1F9108951F93182F882308
:2079800021F00E94763C1150E1F71F9108951F93182F0E94763C803249F0809103018F5FC1
:2079A000809303018530C1F01F9108958091C00085FFFCCF84E18093C6008091C00085FF4A
:2079C000FCCF1093C6008091C00085FFFCCF80E18093C6001F910895E0910401F0910501CF
:2079E00009951F9108950E94763C803241F0809103018F5F80930301853081F00895809177
:207A0000C00085FFFCCF84E18093C6008091C00085FFFCCF80E18093C6000895E0910401AC
:207A2000F09105010995089540E951E08823A1F02D9A28EE33E0FA013197F1F72150304072
:207A4000D1F72D9828EE33E0FA013197F1F721503040D1F7815061F708953F924F925F92B3
:207A60006F927F928F929F92AF92BF92CF92DF92EF92FF920F931F93CF93DF93000080E1A3
:207A80008093C4001092C50088E18093C10086E08093C2005098589A259A81E00E94143D43
:207AA00024E1F22E9EE1E92E85E9D82E0FE0C02E10E1B12EAA24A394B1E49B2EA6E58A2E44
:207AC000F2E57F2EE0E26E2E79E4572E63E5462E50E5352E0E94763C8033B1F18133B9F187
:207AE000803409F46FC0813409F476C0823409F485C0853409F488C0803531F1823521F128
:207B0000813511F1853509F485C0863509F48DC0843609F496C0843709F403C1853709F46A
:207B200072C1863709F466C0809103018F5F80930301853079F6E0910401F0910501099559
:207B40000E94763C803351F60E94F33CC3CF0E94763C803249F78091C00085FFFCCFF0928C
:207B6000C6008091C00085FFFCCF9092C6008091C00085FFFCCF8092C6008091C00085FFEA
:207B8000FCCF7092C6008091C00085FFFCCF6092C6008091C00085FFFCCF5092C6008091A1
:207BA000C00085FFFCCF4092C6008091C00085FFFCCF3092C6008091C00085FFFCCFB09214
:207BC000C60088CF0E94763C863808F4BDCF0E94763C0E94F33C7ECF0E94763C803809F473
:207BE0009CC0813809F40BC1823809F43CC1883909F48FC080E00E94C73C6CCF84E10E949F
:207C0000BD3C0E94F33C66CF85E00E94BD3C0E94F33C60CF0E94763C809306010E94763CA3
:207C2000809307010E94F33C55CF0E94763C803309F41DC183E00E94BD3C80E00E94C73C4F
:207C400049CF0E94763C809309020E94763C8093080280910C028E7F80930C020E94763C88
:207C6000853409F415C18091080290910902892B89F000E010E00E94763CF801E85FFE4F53
:207C800080830F5F1F4F80910802909109020817190788F30E94763C803209F045CF8091E0
:207CA0000C0280FF01C16091060170910701660F771F7093070160930601A0910802B091E8
:207CC00009021097C9F0E8E0F1E09B01AD014E0F5F1FF999FECF32BD21BD819180BDFA9A6C
:207CE000F99A2F5F3F4FE417F50799F76A0F7B1F70930701609306018091C00085FFFCCF16
:207D0000F092C6008091C00085FFFCCFB092C600E1CE83E00E94C73CDDCE82E00E94C73C8A
:207D2000D9CE0E94763C809309020E94763C809308028091060190910701880F991F909306
:207D40000701809306010E94763C853409F4A6C080910C028E7F80930C020E94763C80323E
:207D600009F0B8CE8091C00085FFFCCFF092C600609108027091090261157105B9F140E05F
:207D800050E080910C02A82FA170B82FB27011C0BB2309F45CC0E0910601F0910701319613
:207DA000F0930701E09306014F5F5F4F46175707E8F4AA2369F3F999FECF209106013091CA
:207DC000070132BD21BDF89A90B58091C00085FFFCCF9093C6002F5F3F4F30930701209354
:207DE00006014F5F5F4F4617570718F38091C00085FDE5CE8091C00085FFF8CFE0CE81E029
:207E00000E94C73C67CE0E94763C803209F08CCE8091C00085FFFCCFF092C6008091C000F6
:207E200085FFFCCFE092C6008091C00085FFFCCFD092C6008091C00085FFFCCFC092C6003B
:207E40008091C00085FFFCCFB092C60043CEE0910601F091070194918091C00085FFFCCFA3
:207E60009093C6009CCF80E10E94C73C33CE0E94763C0E94763C182F0E94763C112309F433
:207E800083C0113009F484C08FE00E94C73C22CE80910C02816080930C02E5CE80910C0226
:207EA000816080930C0259CF809107018823880F880B8A2180930B0280910601909107019E
:207EC000880F991F90930701809306018091080280FF09C0809108029091090201969093AA
:207EE000090280930802F894F999FECF1127E0910601F0910701C8E0D1E0809108029091A1
:207F00000902103091F40091570001700130D9F303E000935700E895009157000170013067
:207F2000D9F301E100935700E895099019900091570001700130D9F301E000935700E8954C
:207F40001395103498F011270091570001700130D9F305E000935700E8950091570001707A
:207F60000130D9F301E100935700E8953296029709F0C7CF103011F00296E5CF11248091F8
:1E7F8000C00085FFB9CEBCCE8EE10E94C73CA2CD85E90E94C73C9ECDF894FFCF8000B3
:00000001FF
