:200000000C94B7000C94DF000C94DF000C94DF000C94DF000C94DF000C94DF000C94B7092F
:200020000C94DF000C94DF000C94DF000C94DF000C94DF000C94DF000C94DF000C94DF00C8
:200040000C947D0D0C94DF000C94DF000C94DF000C94DF000C94DF000C94DF000C94DF00FD
:200060000C94DF000C94DF00C8009600C8009600C8009600C8009600C800B80B00003C0043
:2000800096003C00B80B000020455252004C494E206572726F72733A200077616974696E3C
:2000A000672E2E2E00636F6E6669672073746174653A20756E6B6E6F776E20282564290034
:2000C000636F6E6669672073746174653A2025642E25640A00636F6E66696720746F67677E
:2000E0006C65640A00636F6E666967206C6F616465643A2025640A00636F6E6669672073CC
:20010000746174653A2025640A004C494E3A2025752C2025752C2025752C2025752C20254A
:20012000752C2025752C2025752C2025750A004552524F523A206B4C696E5370656564200B
:200140006F7574206F662072616E676500010001020501040A01080F011014012019014055
:200160001E01D303740427062C074F08FA0A11241FBECFEFD8E0DEBFCDBF11E0A0E0B1E0A4
:20018000E4EEFCE102C005900D92A432B107D9F712E0A4E2B1E001C01D92A23DB107E1F774
:2001A00011E0CEE6D1E004C02297FE010E94350EC236D107C9F70E94600D0C94700E0C942B
:2001C0000000DF92EF92FF920F931F937B018C01FB010995D82EC8010196F7010995982FE2
:2001E0008D2D1F910F91FF90EF90DF900895DF92EF92FF920F931F93D72E7A018C01FA01FC
:200200000995C80101966D2DF70109951F910F91FF90EF90DF900895AEE0B0E0E2E1F1E094
:200220000C94470E8C0177FF02C060E070E8615070407E836D831A8309838EE08C83CE01A5
:200240000196BA01A9010E9436012D813E8137FD09C0EF81F8852E173F070CF4F901E00FFE
:20026000F11F10822E96E4E00C94630EABE0B0E0ECE3F1E00C94390E3C012B015A01FC01E0
:2002800017821682838181FD03C06FEF7FEFC6C19AE0892E1E010894211C311CF301238187
:2002A000F20123FD859123FF81912F01882309F4B2C1853239F423FD859123FF81912F0118
:2002C000853229F490E0B3010E942903E7CF982FFF24EE249924FFE1FF15D0F09B3269F00F
:2002E0009C3228F4903259F0933291F40EC09D3249F0903369F441E024C052E0F52A84E00F
:20030000F82A28C098E0F92A25C0E0E1FE2A22C0F7FC29C0892F80538A3070F4F6FE05C04A
:20032000989C902C1124980E15C0E89CE02C1124E80EF0E2FF2A0EC09E3229F4F6FC6BC18E
:2003400040E4F42A07C09C3619F450E8F52A02C0983649F4F20123FD959123FF91912F01E4
:20036000992309F0B8CF892F8554833018F08052833038F444E050E0A40EB51E5FE359834D
:200380000FC0933631F0933779F0933509F056C020C0F5018081898342E050E0A40EB51EE0
:2003A000610101E010E012C0F501C080D180F6FC03C06FEF7FEF02C0692D70E042E050E036
:2003C000A40EB51EC6010E941E038C015FE7F52214C0F501C080D180F6FC03C06FEF7FEF48
:2003E00002C0692D70E042E050E0A40EB51EC6010E9413038C0150E8F52AF3FE07C01AC089
:2004000080E290E0B3010E942903EA948E2D90E008171907A8F30EC0F601F7FC8591F7FE42
:2004200081916F0190E0B3010E942903E110EA94015010400115110579F7EAC0943611F027
:20044000993669F5F7FE08C0F501208131814281538184E090E00AC0F501808191819C018E
:20046000442737FD4095542F82E090E0A80EB91E9FE6F92257FF09C0509540953095219532
:200480003F4F4F4F5F4FE0E8FE2ACA01B901A1012AE030E00E945503D82ED21840C095379B
:2004A00029F41F2D1F7E2AE030E01DC01F2D197F9F3661F0903720F4983509F0ACC00FC059
:2004C000903739F0983709F0A6C004C028E030E00AC0106114FD146020E130E004C014FD7C
:2004E000166020E132E017FF08C0F501608171818281938144E050E008C0F5018081918190
:20050000BC0180E090E042E050E0A40EB51EA1010E945503D82ED2188FE7F82EF122F6FE48
:200520000BC05EEFF522D91438F4F4FE07C0F2FC05C08FEEF82202C01D2D01C0192DF4FE6B
:200540000DC0FE01ED0DF11D8081803319F499EEF92208C01F5FF2FE05C003C08F2D8678EC
:2005600009F01F5F0F2DF3FC14C0F0FE0FC01E1510F09D2C0BC09D2C9E0C911A1E2D06C052
:2005800080E290E0B3010E9429031F5F1E15C0F304C01E1510F4E11A01C0EE2404FF0FC008
:2005A00080E390E0B3010E94290302FF1DC001FD03C088E790E00EC088E590E00BC0802F43
:2005C000867891F001FF02C08BE201C080E2F7FC8DE290E0B3010E94290306C080E390E05D
:2005E000B3010E9429039A94D914C0F3DA94F101ED0DF11D808190E0B3010E942903DD2053
:20060000A9F706C080E290E0B3010E942903EA94EE20C1F743CEF30166817781CB012B966B
:20062000E2E10C94550EFC010590615070400110D8F7809590958E0F9F1F0895FC01615041
:20064000704001900110D8F7809590958E0F9F1F08950F931F93CF93DF938C01EB018B819A
:2006600081FF1BC082FF0DC02E813F818C819D812817390764F4E881F9810193F983E88302
:2006800006C0E885F985802F0995892B31F48E819F8101969F838E8302C00FEF1FEFC801F3
:2006A000DF91CF911F910F910895FA01AA27283051F1203181F1E8946F936E7F6E5F7F4F4E
:2006C0008F4F9F4FAF4FB1E03ED0B4E03CD0670F781F891F9A1FA11D680F791F8A1F911D7F
:2006E000A11D6A0F711D811D911DA11D20D009F468943F912AE0269F11243019305D3193D4
:20070000DEF6CF010895462F4770405D4193B3E00FD0C9F7F6CF462F4F70405D4A3318F0AE
:20072000495D31FD4052419302D0A9F7EACFB4E0A6959795879577956795BA95C9F700978F
:200740006105710508959B01AC010A2E06945795479537952795BA95C9F7620F731F841F00
:20076000951FA01D089583E384BD8CE085BD16BC8AE187BD8DE088BD10926E0015BA109262
:20078000290184B58F7C84BD559A5D98089580932801882339F41092290184B58F7C84BDC4
:2007A000559A5D9808950E94570D609324017093250180932601909327010895CF93DF937B
:2007C00080912901882309F470C080912B0190912A01282F30E0913041F4F901EE0FFF1F0B
:2007E000E859FF4FC591D49107C0F901EE0FFF1FE258FF4FC591D4910E94570D20912401B4
:20080000309125014091260150912701621B730B840B950B9E0140E050E062177307840759
:20082000950708F45EC00E94570D6093240170932501809326019093270140912B014F5F8B
:2008400040932B0180912A01242F30E0813041F4F901EE0FFF1FE859FF4F8591949107C06E
:20086000F901EE0FFF1FE258FF4F85919491892B19F040FF0CC013C080912801882369F0C7
:200880001092280182E080932A0110922B0116BC84B5806384BD559A24C01092290184B518
:2008A0008F7C84BD559A5D981CC0809128018823C1F081E08093290180932A0110922B01EC
:2008C0000E94570D6093240170932501809326019093270116BC84B5806384BD559A10928C
:2008E0002801DF91CF91089585E290E090932E0180932D0183E290E09093300180932F018C
:2009000082E080933101219A29980E94570D6093320170933301809334019093350110920E
:20092000360181E080932C01E0912D01F0912E0190818091310180958923808308958F92BA
:200940009F92AF92BF92CF92DF92EF92FF920F931F93DF93CF93CDB7DEB72B970FB6F8949C
:20096000DEBF0FBECDBFEE24E39422E0822E93E0992E6E010894C11CD11C82E0A82EB12C22
:20098000AC0EBD1E0E94D80C0E94D20B80912C01823019F1833009F44AC0813009F066C039
:2009A00080913601882309F461C080922C01E0912D01F0912E01808190913101892B80838D
:2009C0000E94570D609332017093330180933401909335011092360149C00E94570D20917A
:2009E0003201309133014091340150913501621B730B840B950B6531710581059105B0F1BF
:200A000090922C01E0912D01F0912E019081809131018095892380830E94570D60933201F4
:200A20007093330180933401909335011FC00E94570D209132013091330140913401509139
:200A40003501621B730B840B950B6F3171058105910560F0E0922C01E0912D01F0912E01C6
:200A60009081809131018095892380830E948007809137018823A1F487E391E00E946F0DB3
:200A8000892B71F00E94570D60934C0170934D0180934E0190934F0187E391E00E94790DD2
:200AA0000E94570D20914C0130914D0140914E0150914F01621B730B840B950B6858734134
:200AC0008040904070F08AE990E00E946D0C0E94570D60934C0170934D0180934E0190930C
:200AE0004F0180913F018823A1F48FE391E00E946F0D892B71F00E94570D609348017093BA
:200B0000490180934A0190934B018FE391E00E94790D0E94B009182F882361F0E09236016C
:200B20000E94570D60934C0170934D0180934E0190934F0180914701812B8093470188233E
:200B400049F10E94570D209148013091490140914A0150914B01621B730B840B950B695E16
:200B6000734080409040B0F08DE890E00E94540C809147010E947C0B0E94410C0E94570D34
:200B8000609348017093490180934A0190934B01109247011982C6010E947E09882309F4E2
:200BA000F1CEC6010E943009F82E882311F4E092360100E010E00EC00115110519F080E220
:200BC0000E94C00BF501E00FF11D80810E94F60B0F5F1F4F898190E0081719076CF3FF20FE
:200BE00021F488E890E00E94540C0E94410C0E94570D60934C0170934D0180934E019093F3
:200C00004F01FF2009F4BECEC6010E946207BACE0E94AD0B0E9401090E94030B0E941A0808
:200C2000789408959C01F999FECF32BD21BDF89A80B508959C01F999FECF1FBA32BD21BD3C
:200C400060BD0FB6F894FA9AF99A0FBE08950E94570D60935101709352018093530190936A
:200C6000540108958093550100D000D0EDB7FEB7319628EF30E0ADB7BEB712963C932E9321
:200C80001197828313820E94AD0C0F900F900F900F900E94570D6093510170935201809387
:200CA000530190935401089580E090E062E176E00E94E10020E08856954409F021E020937B
:200CC000500100D000D0EDB7FEB7319685EE90E0ADB7BEB712969C938E931197228313826D
:200CE0000E94AD0C0F900F900F900F90089580915001882319F464E372E102C068E675E463
:200D000080E090E04AE156E00E94F70000D085ED90E0EDB7FEB7928381830E94AD0C0F90EB
:200D20000F900E94540608951F93209155012130B1F0213038F0223009F45BC0233009F0A1
:200D400061C05CC080916C01823009F07AC010925701809180018093560181E069C00E94D1
:200D6000570D20915101309152014091530150915401621B730B840B950B61527E4480403E
:200D8000904008F054C020915701273008F453C04EC02630A9F583E04BC010918001809165
:200DA0005601813019F5123009F52F5F2093570100D000D000D0EDB7FEB7319680EC90E0D8
:200DC000ADB7BEB712969C938E93119781E090E093838283248315820E94AD0C8DB79EB77C
:200DE00006960FB6F8949EBF0FBE8DBF1093560128C080916C01813021F502C00E94770688
:200E000080E016C000D000D0EDB7FEB7319685EA90E0ADB7BEB712969C938E9311972283DF
:200E200013820E94AD0C0F900F900F900F9082E00E94320606C080916C01813009F0ADCFA0
:200E4000A8CF1F9108950E94940608950E94540680E00E94320608951F9385E290E0909376
:200E60005A018093590183E290E090935C0180935B0111E010935D01209A28980E94570D74
:200E800060935E0170935F0180936001909361011092620110935801E0915901F0915A01FC
:200EA000908180915D018095892380830E94570D6093630170936401809365019093660126
:200EC0001F910895CF93DF93EC0181E080936201CE010E94BA088981893379F48881883006
:200EE00061F4909150018A8182FD02C080E003C0892F911181E00E94C703DF91CF91089528
:200F00000E94F8080E9423070E94DE0380915801823021F1833009F44CC0813009F069C023
:200F200080916201882309F464C082E080935801E0915901F0915A01808190915D01892BC8
:200F400080830E94570D60935E0170935F018093600190936101109262014BC00E94570DC4
:200F600020915E0130915F014091600150916101621B730B840B950B653171058105910579
:200F8000C0F183E080935801E0915901F0915A01908180915D018095892380830E94570DE0
:200FA00060935E0170935F01809360019093610120C00E94570D20915E0130915F0140919B
:200FC000600150916101621B730B840B950B6F3171058105910568F081E080935801E0917B
:200FE0005901F0915A01908180915D018095892380830E94570D2091630130916401409165
:20100000650150916601621B730B840B950B685E73408040904068F081E0809362010E941E
:20102000570D6093630170936401809365019093660108950E9424080E9426070E94B303F8
:2010400081E080936201089508950F931F938C01FC01608352834183348323830E94570DC2
:20106000F80166837783808791870E94570DF80162877387848795870E94570DF801608B82
:20108000718B828B938B15820E94570DF801668377838087918716861F910F91089587E69B
:2010A00091E063E048EE53E020ED37E00E9425088BE791E061E048EE53E020ED37E00E94CD
:2010C000250808951F93CF93DF93EC01162F8D81813029F0823061F4662351F002C066239A
:2010E00039F40E94570D6A877B878C879D873EC08E858823B1F08F85811799F40E94570DF7
:20110000288939894A895B89621B730B840B950B29813A8140E050E06217730784079507AC
:2011200008F181E08E871F870E94570D688B798B8A8B9B8B9E8588819817C0F00E94570DD1
:201140006A877B878C879D870E94570D6E837F83888799871E86112311F481E001C082E0DC
:201160008D8304C08E858F5F8E87DECFDF91CF911F910895FC018181873951F480818730FF
:2011800091F4658160788BE791E00E9462080895803549F480818A3031F46281617087E68D
:2011A00091E00E9462080895CF93DF93EC018D818823D9F00E94570D2A853B854C855D85AA
:2011C000621B730B840B950B2B813C8140E050E0621773078407950740F01D820E94570D3D
:2011E0006E837F83888799871E86DF91CF91089587E691E00E94D4088BE791E00E94D408FF
:2012000008951092800083E0809381001092850010928400109289001092880010928B0049
:2012200010928A0010926F0016BA0895482F282F220F220F622F6095822F880F982F990F97
:20124000392F330F532F550F86278927922793278527807895279074892B4F73842B089508
:201260000F931F93CF93DF93EC010881013021F0802F8350883048F51981812F0E9416090C
:20128000181719F5023010F491E020C0FE01E00FF11DE081DE01119620E030E003C08D91B6
:2012A000280F311D0150D9F7332339F0832F90E0AC01420F511D9A01F7CF90E0822F8095E4
:2012C000E81391E081E0982701C090E0892FDF91CF911F910F910895FC0180E09BE49183EC
:2012E0008083128288E6838386E384838DE0858386E086838EE490E087830895582F692FE7
:201300009091F5018091F5019817E1F3F8944091F7018091F601481711F480E01FC0242FD9
:2013200030E08BE090E0289FF001299FF00D389FF00D1124252F362FC901DC01E456FE4F55
:201340008BE001900D928150E1F7842F8F5F8093F701883010F01092F70181E07894089541
:20136000F8948091F8011092F801789408951F920F920FB60F9211242F933F934F935F933E
:201380006F937F938F939F93AF93BF93EF93FF93439A8091F401813021F0823009F003C129
:2013A00045C04A990AC1809197018F5F809397018A3008F404C1409A209184003091850068
:2013C0001092B2004A9909C08091840090918500821B930B8F3F910598F3409882E080935B
:2013E000F40110929801109299018091F60190E02BE030E0829FF001839FF00D929FF00D8F
:201400001124E456FE4F108220918400309185001092B2004A9BC2C080918400909185000D
:20142000821B930B8F3F910598F3B8C02C9A89B184702C9820919901222381F4882331F081
:2014400080919801882359F194E02AC081E08093990110929A0180939B01B1C0293090F447
:20146000882339F080919A0190919B01892B80939A0180919B01880F80939B012F5F209399
:2014800099019DC0409198014F5F4093980110929901882361F4442311F098E001C090E183
:2014A0002B9A8091F801982B9093F80182C050919A01413061F4553501F12B9A8091F801AF
:2014C00080618093F8012B984093F40176C08091F60190E02BE030E0829FF001839FF00D9A
:2014E000929FF00D1124E456FE4F8081DF01A80FB11D11965C938F5F808380919601682FD6
:2015000070E020918400309185001092B2004A9B0AC08091840090918500821B930B8617EA
:20152000970798F363C08091F60190E02BE030E0829FF001839FF00D929FF00D1124E456FE
:20154000FE4F80818A3028F529C02B9A8091F80181602DC08091F6018F5F8093F601883028
:2015600010F01092F6019091F7018091F601981709F52B9A8091F80180628093F8012B9884
:20158000892F8F5F8093F7018830A0F01092F70111C02B9A8091F801826009C080919301C8
:2015A0008093B2000CC02B9A8091F80180648093F8012B9881E08093F40110929701809164
:2015C000F5018F5F8093F5014398FF91EF91BF91AF919F918F917F916F915F914F913F91A3
:2015E0002F910F900FBE0F901F901895442309F0B1CFABCFECE9F1E010823B9681E0E43FDD
:20160000F807D1F708958FE891E00E946C0952985A9A389A4098249A2C98239A2B983B9A08
:201620004398569A5E981092F6011092F70181E08093F40110929701539A83E38093B000FD
:2016400080919101882311F482E001C084E088608093B1001092B200809192018150809328
:20166000B30081508093B40082E08093700087BB1092F8010E94EE0B8DB79EB742970FB68B
:20168000F8949EBF0FBE8DBFEDB7FEB731968AE091E0ADB7BEB712969C938E9311978091C3
:2016A0008F01909190019383828381E090E0958384838091910186831782809192018087ED
:2016C000118680919301828713868091940184871586809195018687178680919601808BDC
:2016E000118A0E94AD0C8DB79EB742960FB6F8949EBF0FBE8DBF08950F931F93CF93DF93F7
:2017000020E0C0E0D0E0082F10E0FE01EE0FFF1FEC0FFD1FE35BFE4FE4918E2F90E0802351
:201720009123892B89F0222319F080E20E94C00BFE01EE0FFF1FEC0FFD1FE25BFE4F8591DA
:2017400094910E94950C21E02196C730D105E9F6DF91CF911F910F91089510924A02109270
:2017600049021092C50080E18093C40082E08093C00088E08093C10086E08093C200089536
:2017800090914902983768F4E0914A02E90FE83708F0E857F0E0E55BFD4F80839F5F909327
:2017A00049020895909149029923B9F08091C00085FF13C080914A02E82FF0E0E55BFD4F78
:2017C000E0818F5F80934A02883710F010924A02915090934902E093C600089502C00E9425
:2017E000D20B809149028823D1F70895282F22952F70909149022A3068F49837D8F4E091C5
:201800004A02E90FE83708F0E857F0E0E55BFD4F205D0CC0983770F4E0914A02E90FE83782
:2018200008F0E857F0E0E55BFD4F295A20839F5F909349028F70909149028A3088F4983713
:20184000F8F4E0914A02E90FE83708F0E857F0E0E55BFD4F805D80839F5F9093490208954C
:20186000983770F4E0914A02E90FE83708F0E857F0E0E55BFD4F895A80839F5F909349027C
:20188000089590914902983770F4E0914A02E90FE83708F0E857F0E0E55BFD4F8AE0808338
:2018A0009F5F90934902089540914A0220914902FC0101963491332369F02837C8F7E22FCF
:2018C000E40FE83708F0E857F0E0E55BFD4F30832F5FEECF20934902089540914A022091FC
:2018E0004902FC0101963491332369F02837C8F7E22FE40FE83708F0E857F0E0E55BFD4FC1
:2019000030832F5FEECF20934902283768F4E42FE20FE83708F0E857F0E0E55BFD4F8AE0F0
:2019200080832F5F209349020895DC0120914A02809149029D91992369F08837D8F7E82F5D
:20194000E20FE83708F0E857F0E0E55BFD4F90838F5FF0CF809349020895DF93CF93CDB7D1
:20196000DEB7FE0135964191519189EF91E060E570E09F010E940C0120914A02809149022E
:20198000A9EFB1E00DC0883750F4E82FE20FE83708F0E857F0E0E55BFD4F90838F5F1196EC
:2019A0009C91992381F780934902CF91DF9108954F925F926F927F928F929F92AF92BF9233
:2019C000CF92DF92EF92FF920F931F93F894209184003091850078944090C7025090C80279
:2019E000241935096090C3027090C4028090C5029090C602C90164EC79E00E941F0E5B0194
:201A00008CE396EFAC01649FC001659F900D749F900D1124820F931F6AEF70E00E941F0E20
:201A20006B017B0100E010E0B50180E090E02AE030E040E050E00E94000E660E771E881E9F
:201A4000991EE60CF71C081D191DE092C302F092C4020093C5021093C6028AEF90E0C89EDC
:201A60009001C99E300DD89E300D112484EC99E0AC01A49EC001A59E900DB49E900D1124AC
:201A8000840D951D280F391F3093C8022093C7021F910F91FF90EF90DF90CF90BF90AF90B1
:201AA0009F908F907F906F905F904F9008956091C3027091C4028091C5029091C602089584
:201AC000CF93DF930E94C50D0E940806C0E0D0E00E949F042097E1F30E940000F9CFFC0187
:201AE00020E030E08081882311F421E030E0C9010895FC0181E0808308951F920F920FB698
:201B00000F9211242F933F938F939F93AF93BF938091CD029091CE02A091CF02B091D0028D
:201B20003091D1020196A11DB11D232F2D5F2D3720F02D570196A11DB11D2093D10280935C
:201B4000CD029093CE02A093CF02B093D0028091C9029091CA02A091CB02B091CC0201963D
:201B6000A11DB11D8093C9029093CA02A093CB02B093CC02BF91AF919F918F913F912F918B
:201B80000F900FBE0F901F901895789484B5826084BD84B5816084BD85B5826085BD85B583
:201BA000816085BDEEE6F0E0808181608083E1E8F0E0108280818260808380818160808383
:201BC000E0E8F0E0808181608083E1EBF0E0808184608083E0EBF0E0808181608083EAE7B3
:201BE000F0E08081846080838081826080838081816080838081806880831092C100089576
:201C0000629FD001739FF001829FE00DF11D649FE00DF11D929FF00D839FF00D749FF00D78
:201C2000659FF00D9927729FB00DE11DF91F639FB00DE11DF91FBD01CF0111240895AA1B05
:201C4000BB1B51E107C0AA1FBB1FA617B70710F0A61BB70B881F991F5A95A9F780959095EC
:201C6000BC01CD010895EE0FFF1F0590F491E02D09942F923F924F925F926F927F928F92C6
:201C80009F92AF92BF92CF92DF92EF92FF920F931F93CF93DF93CDB7DEB7CA1BDB0B0FB6CC
:201CA000F894DEBF0FBECDBF09942A88398848885F846E847D848C849B84AA84B984C88406
:201CC000DF80EE80FD800C811B81AA81B981CE0FD11D0FB6F894DEBF0FBECDBFED0108958F
:201CE000F894FFCF53485254004C4F4E4700535452540053544F500053594E43004F565252
:201D00004E004F5448520000FFFFFFFFFFFFFFFFFFFFFFFFFFFFFFFFFFFFFFFFFFFFFFFF50
:201D2000FFFFFFFFFFFFFFFFFFFFFFFFFFFFFFFFFFFFFFFFFFFFFFFFFFFFFFFFFFFFFFFFC3
:201D4000FFFFFFFFFFFFFFFFFFFFFFFFFFFFFFFFFFFFFFFFFFFFFFFFFFFFFFFFFFFFFFFFA3
:201D6000FFFFFFFFFFFFFFFFFFFFFFFFFFFFFFFFFFFFFFFFFFFFFFFFFFFFFFFFFFFFFFFF83
:201D80006F927F928F929F92AF92BF92CF92DF92EF92FF920F931F93CF93DF93CDB7DEB728
:201DA000CA1BDB0B0FB6F894DEBF0FBECDBF09942A88398848885F846E847D848C849B842C
:201DC000AA84B984C884DF80EE80FD800C811B81AA81B981CE0FD11D0FB6F894DEBF0FBEEE
:201DE000CDBFED010895F894FFCF53485254004C4F4E4700535452540053544F50005359C2
:201E00004E43004F56524E004F5448520000FFFFFFFFFFFFFFFFFFFFFFFFFFFFFFFFFFFFC1
:201E2000FFFFFFFFFFFFFFFFFFFFFFFFFFFFFFFFFFFFFFFFFFFFFFFFFFFFFFFFFFFFFFFFC2
:201E4000FFFFFFFFFFFFFFFFFFFFFFFFFFFFFFFFFFFFFFFFFFFFFFFFFFFFFFFFFFFFFFFFA2
:201E6000FFFFFFFFFFFFFFFFFFFFFFFFFFFFFFFFFFFFFFFFFFFFFFFFFFFFFFFFFFFFFFFF82
:201E8000FFFFFFFFFFFFFFFFFFFFFFFFFFFFFFFFFFFFFFFFFFFFFFFFFFFFFFFFFFFFFFFF62
:207800000C94343C0C94513C0C94513C0C94513C0C94513C0C94513C0C94513C0C94513C1D
:207820000C94513C0C94513C0C94513C0C94513C0C94513C0C94513C0C94513C0C94513CE0
:207840000C94513C0C94513C0C94513C0C94513C0C94513C0C94513C0C94513C0C94513CC0
:207860000C94513C0C94513C11241FBECFEFD8E0DEBFCDBF11E0A0E0B1E0ECE9FFE702C07E
:2078800005900D92A230B107D9F712E0A2E0B1E001C01D92AD30B107E1F70E942D3D0C94CC
:2078A000CC3F0C94003C982F9595959595959595905D8F708A307CF0282F295A8091C000B5
:2078C00085FFFCCF9093C6008091C00085FFFCCF2093C6000895282F205DF0CF982F8091CF
:2078E000C00085FFFCCF9093C6000895EF92FF920F931F93EE24FF2487018091C00087FD7B
:2079000017C00894E11CF11C011D111D81E4E81682E4F8068FE0080780E0180770F3E09106
:207920000401F091050109958091C00087FFE9CF8091C6001F910F91FF90EF9008950E949A
:20794000763C982F8091C00085FFFCCF9093C60091362CF490330CF09053892F08959755DB
:20796000892F08951F930E949F3C182F0E949F3C1295107F810F1F9108951F93182F882308
:2079800021F00E94763C1150E1F71F9108951F93182F0E94763C803249F0809103018F5FC1
:2079A000809303018530C1F01F9108958091C00085FFFCCF84E18093C6008091C00085FF4A
:2079C000FCCF1093C6008091C00085FFFCCF80E18093C6001F910895E0910401F0910501CF
:2079E00009951F9108950E94763C803241F0809103018F5F80930301853081F00895809177
:207A0000C00085FFFCCF84E18093C6008091C00085FFFCCF80E18093C6000895E0910401AC
:207A2000F09105010995089540E951E08823A1F02D9A28EE33E0FA013197F1F72150304072
:207A4000D1F72D9828EE33E0FA013197F1F721503040D1F7815061F708953F924F925F92B3
:207A60006F927F928F929F92AF92BF92CF92DF92EF92FF920F931F93CF93DF93000080E1A3
:207A80008093C4001092C50088E18093C10086E08093C2005098589A259A81E00E94143D43
:207AA00024E1F22E9EE1E92E85E9D82E0FE0C02E10E1B12EAA24A394B1E49B2EA6E58A2E44
:207AC000F2E57F2EE0E26E2E79E4572E63E5462E50E5352E0E94763C8033B1F18133B9F187
:207AE000803409F46FC0813409F476C0823409F485C0853409F488C0803531F1823521F128
:207B0000813511F1853509F485C0863509F48DC0843609F496C0843709F403C1853709F46A
:207B200072C1863709F466C0809103018F5F80930301853079F6E0910401F0910501099559
:207B40000E94763C803351F60E94F33CC3CF0E94763C803249F78091C00085FFFCCFF0928C
:207B6000C6008091C00085FFFCCF9092C6008091C00085FFFCCF8092C6008091C00085FFEA
:207B8000FCCF7092C6008091C00085FFFCCF6092C6008091C00085FFFCCF5092C6008091A1
:207BA000C00085FFFCCF4092C6008091C00085FFFCCF3092C6008091C00085FFFCCFB09214
:207BC000C60088CF0E94763C863808F4BDCF0E94763C0E94F33C7ECF0E94763C803809F473
:207BE0009CC0813809F40BC1823809F43CC1883909F48FC080E00E94C73C6CCF84E10E949F
:207C0000BD3C0E94F33C66CF85E00E94BD3C0E94F33C60CF0E94763C809306010E94763CA3
:207C2000809307010E94F33C55CF0E94763C803309F41DC183E00E94BD3C80E00E94C73C4F
:207C400049CF0E94763C809309020E94763C8093080280910C028E7F80930C020E94763C88
:207C6000853409F415C18091080290910902892B89F000E010E00E94763CF801E85FFE4F53
:207C800080830F5F1F4F80910802909109020817190788F30E94763C803209F045CF8091E0
:207CA0000C0280FF01C16091060170910701660F771F7093070160930601A0910802B091E8
:207CC00009021097C9F0E8E0F1E09B01AD014E0F5F1FF999FECF32BD21BD819180BDFA9A6C
:207CE000F99A2F5F3F4FE417F50799F76A0F7B1F70930701609306018091C00085FFFCCF16
:207D0000F092C6008091C00085FFFCCFB092C600E1CE83E00E94C73CDDCE82E00E94C73C8A
:207D2000D9CE0E94763C809309020E94763C809308028091060190910701880F991F909306
:207D40000701809306010E94763C853409F4A6C080910C028E7F80930C020E94763C80323E
:207D600009F0B8CE8091C00085FFFCCFF092C600609108027091090261157105B9F140E05F
:207D800050E080910C02A82FA170B82FB27011C0BB2309F45CC0E0910601F0910701319613
:207DA000F0930701E09306014F5F5F4F46175707E8F4AA2369F3F999FECF209106013091CA
:207DC000070132BD21BDF89A90B58091C00085FFFCCF9093C6002F5F3F4F30930701209354
:207DE00006014F5F5F4F4617570718F38091C00085FDE5CE8091C00085FFF8CFE0CE81E029
:207E00000E94C73C67CE0E94763C803209F08CCE8091C00085FFFCCFF092C6008091C000F6
:207E200085FFFCCFE092C6008091C00085FFFCCFD092C6008091C00085FFFCCFC092C6003B
:207E40008091C00085FFFCCFB092C60043CEE0910601F091070194918091C00085FFFCCFA3
:207E60009093C6009CCF80E10E94C73C33CE0E94763C0E94763C182F0E94763C112309F433
:207E800083C0113009F484C08FE00E94C73C22CE80910C02816080930C02E5CE80910C0226
:207EA000816080930C0259CF809107018823880F880B8A2180930B0280910601909107019E
:207EC000880F991F90930701809306018091080280FF09C0809108029091090201969093AA
:207EE000090280930802F894F999FECF1127E0910601F0910701C8E0D1E0809108029091A1
:207F00000902103091F40091570001700130D9F303E000935700E895009157000170013067
:207F2000D9F301E100935700E895099019900091570001700130D9F301E000935700E8954C
:207F40001395103498F011270091570001700130D9F305E000935700E8950091570001707A
:207F60000130D9F301E100935700E8953296029709F0C7CF103011F00296E5CF11248091F8
:1E7F8000C00085FFB9CEBCCE8EE10E94C73CA2CD85E90E94C73C9ECDF894FFCF8000B3
:00000001FF
